{
  "_format": "hh-sol-artifact-1",
  "contractName": "Attack",
  "sourceName": "contracts/attack.sol",
  "abi": [
    {
      "inputs": [
        {
          "internalType": "address",
          "name": "_attackpelusacontract",
          "type": "address"
        }
      ],
      "stateMutability": "nonpayable",
      "type": "constructor"
    },
    {
      "inputs": [],
      "name": "attackpelusa",
      "outputs": [
        {
          "internalType": "contract attack_pelusa",
          "name": "",
          "type": "address"
        }
      ],
      "stateMutability": "view",
      "type": "function"
    },
    {
      "inputs": [
        {
          "internalType": "address",
          "name": "pelusaconractdeployer",
          "type": "address"
        }
      ],
      "name": "scoretwogoals",
      "outputs": [],
      "stateMutability": "nonpayable",
      "type": "function"
    }
  ],
  "bytecode": "0x608060405234801561001057600080fd5b506040516103a83803806103a8833981810160405281019061003291906100db565b806000806101000a81548173ffffffffffffffffffffffffffffffffffffffff021916908373ffffffffffffffffffffffffffffffffffffffff16021790555050610108565b600080fd5b600073ffffffffffffffffffffffffffffffffffffffff82169050919050565b60006100a88261007d565b9050919050565b6100b88161009d565b81146100c357600080fd5b50565b6000815190506100d5816100af565b92915050565b6000602082840312156100f1576100f0610078565b5b60006100ff848285016100c6565b91505092915050565b610291806101176000396000f3fe608060405234801561001057600080fd5b50600436106100365760003560e01c806309f1fb751461003b57806329c7ae9114610057575b600080fd5b6100556004803603810190610050919061018a565b610075565b005b61005f610103565b60405161006c9190610216565b60405180910390f35b60008054906101000a900473ffffffffffffffffffffffffffffffffffffffff1673ffffffffffffffffffffffffffffffffffffffff166331e17850826040518263ffffffff1660e01b81526004016100ce9190610240565b600060405180830381600087803b1580156100e857600080fd5b505af11580156100fc573d6000803e3d6000fd5b5050505050565b60008054906101000a900473ffffffffffffffffffffffffffffffffffffffff1681565b600080fd5b600073ffffffffffffffffffffffffffffffffffffffff82169050919050565b60006101578261012c565b9050919050565b6101678161014c565b811461017257600080fd5b50565b6000813590506101848161015e565b92915050565b6000602082840312156101a05761019f610127565b5b60006101ae84828501610175565b91505092915050565b6000819050919050565b60006101dc6101d76101d28461012c565b6101b7565b61012c565b9050919050565b60006101ee826101c1565b9050919050565b6000610200826101e3565b9050919050565b610210816101f5565b82525050565b600060208201905061022b6000830184610207565b92915050565b61023a8161014c565b82525050565b60006020820190506102556000830184610231565b9291505056fea26469706673582212201402a1624d822a8cb1a7e88b12d18494a6feb72a067cc7a59f3a0a069dc3cbbf64736f6c63430008120033",
  "linkReferences": {},
  "deployedLinkReferences": {}
}