{
  "_format": "hh-sol-artifact-1",
  "contractName": "AttackD31eg4t3",
  "sourceName": "contracts/attackdelegate.sol",
  "abi": [
    {
      "inputs": [
        {
          "internalType": "address",
          "name": "_targetcontractaddress",
          "type": "address"
        }
      ],
      "stateMutability": "nonpayable",
      "type": "constructor"
    },
    {
      "inputs": [],
      "name": "attackd31eg4t3contract",
      "outputs": [],
      "stateMutability": "nonpayable",
      "type": "function"
    },
    {
      "inputs": [
        {
          "internalType": "address",
          "name": "",
          "type": "address"
        }
      ],
      "name": "canYouHackMe",
      "outputs": [
        {
          "internalType": "bool",
          "name": "",
          "type": "bool"
        }
      ],
      "stateMutability": "view",
      "type": "function"
    },
    {
      "inputs": [],
      "name": "delegatecontract",
      "outputs": [
        {
          "internalType": "contract D31eg4t3",
          "name": "",
          "type": "address"
        }
      ],
      "stateMutability": "view",
      "type": "function"
    },
    {
      "inputs": [],
      "name": "owner",
      "outputs": [
        {
          "internalType": "address",
          "name": "",
          "type": "address"
        }
      ],
      "stateMutability": "view",
      "type": "function"
    },
    {
      "inputs": [
        {
          "internalType": "address",
          "name": "_owneraddress",
          "type": "address"
        }
      ],
      "name": "setownerAndhackme",
      "outputs": [],
      "stateMutability": "nonpayable",
      "type": "function"
    }
  ],
  "bytecode": "0x60806040526130396000556020600160006101000a81548160ff021916908360ff16021790555034801561003257600080fd5b50604051610934380380610934833981810160405281019061005491906100fe565b80600760006101000a81548173ffffffffffffffffffffffffffffffffffffffff021916908373ffffffffffffffffffffffffffffffffffffffff1602179055505061012b565b600080fd5b600073ffffffffffffffffffffffffffffffffffffffff82169050919050565b60006100cb826100a0565b9050919050565b6100db816100c0565b81146100e657600080fd5b50565b6000815190506100f8816100d2565b92915050565b6000602082840312156101145761011361009b565b5b6000610122848285016100e9565b91505092915050565b6107fa8061013a6000396000f3fe608060405234801561001057600080fd5b50600436106100575760003560e01c806329a2392c1461005c5780633d6b68d11461007a57806384ba692b146100845780638da5cb5b146100a0578063941de147146100be575b600080fd5b6100646100ee565b60405161007191906103ed565b60405180910390f35b610082610114565b005b61009e6004803603810190610099919061045a565b61028c565b005b6100a8610328565b6040516100b59190610496565b60405180910390f35b6100d860048036038101906100d3919061045a565b61034e565b6040516100e591906104cc565b60405180910390f35b600760009054906101000a900473ffffffffffffffffffffffffffffffffffffffff1681565b6000600760009054906101000a900473ffffffffffffffffffffffffffffffffffffffff1673ffffffffffffffffffffffffffffffffffffffff1663124ca3aa336040516024016101659190610496565b6040516020818303038152906040527f84ba692b000000000000000000000000000000000000000000000000000000007bffffffffffffffffffffffffffffffffffffffffffffffffffffffff19166020820180517bffffffffffffffffffffffffffffffffffffffffffffffffffffffff83818316178352505050506040518263ffffffff1660e01b81526004016101fe9190610577565b6000604051808303816000875af115801561021d573d6000803e3d6000fd5b505050506040513d6000823e3d601f19601f8201168201806040525081019061024691906106eb565b50905080610289576040517f08c379a0000000000000000000000000000000000000000000000000000000008152600401610280906107a4565b60405180910390fd5b50565b80600560006101000a81548173ffffffffffffffffffffffffffffffffffffffff021916908373ffffffffffffffffffffffffffffffffffffffff1602179055506001600660008373ffffffffffffffffffffffffffffffffffffffff1673ffffffffffffffffffffffffffffffffffffffff16815260200190815260200160002060006101000a81548160ff02191690831515021790555050565b600560009054906101000a900473ffffffffffffffffffffffffffffffffffffffff1681565b60066020528060005260406000206000915054906101000a900460ff1681565b600073ffffffffffffffffffffffffffffffffffffffff82169050919050565b6000819050919050565b60006103b36103ae6103a98461036e565b61038e565b61036e565b9050919050565b60006103c582610398565b9050919050565b60006103d7826103ba565b9050919050565b6103e7816103cc565b82525050565b600060208201905061040260008301846103de565b92915050565b6000604051905090565b600080fd5b600080fd5b60006104278261036e565b9050919050565b6104378161041c565b811461044257600080fd5b50565b6000813590506104548161042e565b92915050565b6000602082840312156104705761046f610412565b5b600061047e84828501610445565b91505092915050565b6104908161041c565b82525050565b60006020820190506104ab6000830184610487565b92915050565b60008115159050919050565b6104c6816104b1565b82525050565b60006020820190506104e160008301846104bd565b92915050565b600081519050919050565b600082825260208201905092915050565b60005b83811015610521578082015181840152602081019050610506565b60008484015250505050565b6000601f19601f8301169050919050565b6000610549826104e7565b61055381856104f2565b9350610563818560208601610503565b61056c8161052d565b840191505092915050565b60006020820190508181036000830152610591818461053e565b905092915050565b6105a2816104b1565b81146105ad57600080fd5b50565b6000815190506105bf81610599565b92915050565b600080fd5b600080fd5b7f4e487b7100000000000000000000000000000000000000000000000000000000600052604160045260246000fd5b6106078261052d565b810181811067ffffffffffffffff82111715610626576106256105cf565b5b80604052505050565b6000610639610408565b905061064582826105fe565b919050565b600067ffffffffffffffff821115610665576106646105cf565b5b61066e8261052d565b9050602081019050919050565b600061068e6106898461064a565b61062f565b9050828152602081018484840111156106aa576106a96105ca565b5b6106b5848285610503565b509392505050565b600082601f8301126106d2576106d16105c5565b5b81516106e284826020860161067b565b91505092915050565b6000806040838503121561070257610701610412565b5b6000610710858286016105b0565b925050602083015167ffffffffffffffff81111561073157610730610417565b5b61073d858286016106bd565b9150509250929050565b600082825260208201905092915050565b7f6661696c65642064656c65676174696f6e000000000000000000000000000000600082015250565b600061078e601183610747565b915061079982610758565b602082019050919050565b600060208201905081810360008301526107bd81610781565b905091905056fea26469706673582212204c60a29b9697aa76e4df44b029050d178341bc9589af957cd0c2b0aef3b6b85464736f6c63430008120033",
  "linkReferences": {},
  "deployedLinkReferences": {}
}