{
  "_format": "hh-sol-artifact-1",
  "contractName": "Confidential",
  "sourceName": "contracts/confidentialhash.sol",
  "abi": [
    {
      "inputs": [],
      "stateMutability": "nonpayable",
      "type": "constructor"
    },
    {
      "inputs": [],
      "name": "ALICE_DATA",
      "outputs": [
        {
          "internalType": "bytes32",
          "name": "",
          "type": "bytes32"
        }
      ],
      "stateMutability": "view",
      "type": "function"
    },
    {
      "inputs": [],
      "name": "BOB_DATA",
      "outputs": [
        {
          "internalType": "bytes32",
          "name": "",
          "type": "bytes32"
        }
      ],
      "stateMutability": "view",
      "type": "function"
    },
    {
      "inputs": [],
      "name": "alice_age",
      "outputs": [
        {
          "internalType": "uint256",
          "name": "",
          "type": "uint256"
        }
      ],
      "stateMutability": "view",
      "type": "function"
    },
    {
      "inputs": [],
      "name": "bob_age",
      "outputs": [
        {
          "internalType": "uint256",
          "name": "",
          "type": "uint256"
        }
      ],
      "stateMutability": "view",
      "type": "function"
    },
    {
      "inputs": [
        {
          "internalType": "bytes32",
          "name": "_hash",
          "type": "bytes32"
        }
      ],
      "name": "checkthehash",
      "outputs": [
        {
          "internalType": "bool",
          "name": "",
          "type": "bool"
        }
      ],
      "stateMutability": "view",
      "type": "function"
    },
    {
      "inputs": [],
      "name": "firstUser",
      "outputs": [
        {
          "internalType": "string",
          "name": "",
          "type": "string"
        }
      ],
      "stateMutability": "view",
      "type": "function"
    },
    {
      "inputs": [
        {
          "internalType": "bytes32",
          "name": "key1",
          "type": "bytes32"
        },
        {
          "internalType": "bytes32",
          "name": "key2",
          "type": "bytes32"
        }
      ],
      "name": "hash",
      "outputs": [
        {
          "internalType": "bytes32",
          "name": "",
          "type": "bytes32"
        }
      ],
      "stateMutability": "pure",
      "type": "function"
    },
    {
      "inputs": [],
      "name": "secondUser",
      "outputs": [
        {
          "internalType": "string",
          "name": "",
          "type": "string"
        }
      ],
      "stateMutability": "view",
      "type": "function"
    }
  ],
  "bytecode": "0x60806040526040518060400160405280600581526020017f414c494345000000000000000000000000000000000000000000000000000000815250600090816200004a9190620003d9565b5060186001557f515778705932554b0000000000000000000000000000000000000000000000006003556200008a6002546003546200012a60201b60201c565b6004556040518060400160405280600381526020017f424f42000000000000000000000000000000000000000000000000000000000081525060059081620000d39190620003d9565b5060156006557f516d396943670000000000000000000000000000000000000000000000000000600855620001136007546008546200012a60201b60201c565b6009553480156200012357600080fd5b506200051f565b6000828260405160200162000141929190620004ef565b60405160208183030381529060405280519060200120905092915050565b600081519050919050565b7f4e487b7100000000000000000000000000000000000000000000000000000000600052604160045260246000fd5b7f4e487b7100000000000000000000000000000000000000000000000000000000600052602260045260246000fd5b60006002820490506001821680620001e157607f821691505b602082108103620001f757620001f662000199565b5b50919050565b60008190508160005260206000209050919050565b60006020601f8301049050919050565b600082821b905092915050565b600060088302620002617fffffffffffffffffffffffffffffffffffffffffffffffffffffffffffffffff8262000222565b6200026d868362000222565b95508019841693508086168417925050509392505050565b6000819050919050565b6000819050919050565b6000620002ba620002b4620002ae8462000285565b6200028f565b62000285565b9050919050565b6000819050919050565b620002d68362000299565b620002ee620002e582620002c1565b8484546200022f565b825550505050565b600090565b62000305620002f6565b62000312818484620002cb565b505050565b5b818110156200033a576200032e600082620002fb565b60018101905062000318565b5050565b601f82111562000389576200035381620001fd565b6200035e8462000212565b810160208510156200036e578190505b620003866200037d8562000212565b83018262000317565b50505b505050565b600082821c905092915050565b6000620003ae600019846008026200038e565b1980831691505092915050565b6000620003c983836200039b565b9150826002028217905092915050565b620003e4826200015f565b67ffffffffffffffff8111156200040057620003ff6200016a565b5b6200040c8254620001c8565b620004198282856200033e565b600060209050601f8311600181146200045157600084156200043c578287015190505b620004488582620003bb565b865550620004b8565b601f1984166200046186620001fd565b60005b828110156200048b5784890151825560018201915060208501945060208101905062000464565b86831015620004ab5784890151620004a7601f8916826200039b565b8355505b6001600288020188555050505b505050505050565b6000819050919050565b6000819050919050565b620004e9620004e382620004c0565b620004ca565b82525050565b6000620004fd8285620004d4565b6020820191506200050f8284620004d4565b6020820191508190509392505050565b6105fd806200052f6000396000f3fe608060405234801561001057600080fd5b50600436106100885760003560e01c8063a803c4731161005b578063a803c47314610129578063ace674eb14610147578063df7ad48614610165578063f0a16b9b1461018357610088565b806335c577081461008d578063412f9cac146100bd57806388da70ec146100ed5780638bf934411461010b575b600080fd5b6100a760048036038101906100a29190610367565b6101a1565b6040516100b491906103af565b60405180910390f35b6100d760048036038101906100d291906103ca565b6101c5565b6040516100e49190610419565b60405180910390f35b6100f56101f8565b60405161010291906104c4565b60405180910390f35b610113610286565b60405161012091906104c4565b60405180910390f35b610131610314565b60405161013e9190610419565b60405180910390f35b61014f61031a565b60405161015c9190610419565b60405180910390f35b61016d610320565b60405161017a91906104ff565b60405180910390f35b61018b610326565b60405161019891906104ff565b60405180910390f35b60006101b16004546009546101c5565b82146101bc57600080fd5b60019050919050565b600082826040516020016101da92919061053b565b60405160208183030381529060405280519060200120905092915050565b6000805461020590610596565b80601f016020809104026020016040519081016040528092919081815260200182805461023190610596565b801561027e5780601f106102535761010080835404028352916020019161027e565b820191906000526020600020905b81548152906001019060200180831161026157829003601f168201915b505050505081565b6005805461029390610596565b80601f01602080910402602001604051908101604052809291908181526020018280546102bf90610596565b801561030c5780601f106102e15761010080835404028352916020019161030c565b820191906000526020600020905b8154815290600101906020018083116102ef57829003601f168201915b505050505081565b60085481565b60035481565b60015481565b60065481565b600080fd5b6000819050919050565b61034481610331565b811461034f57600080fd5b50565b6000813590506103618161033b565b92915050565b60006020828403121561037d5761037c61032c565b5b600061038b84828501610352565b91505092915050565b60008115159050919050565b6103a981610394565b82525050565b60006020820190506103c460008301846103a0565b92915050565b600080604083850312156103e1576103e061032c565b5b60006103ef85828601610352565b925050602061040085828601610352565b9150509250929050565b61041381610331565b82525050565b600060208201905061042e600083018461040a565b92915050565b600081519050919050565b600082825260208201905092915050565b60005b8381101561046e578082015181840152602081019050610453565b60008484015250505050565b6000601f19601f8301169050919050565b600061049682610434565b6104a0818561043f565b93506104b0818560208601610450565b6104b98161047a565b840191505092915050565b600060208201905081810360008301526104de818461048b565b905092915050565b6000819050919050565b6104f9816104e6565b82525050565b600060208201905061051460008301846104f0565b92915050565b6000819050919050565b61053561053082610331565b61051a565b82525050565b60006105478285610524565b6020820191506105578284610524565b6020820191508190509392505050565b7f4e487b7100000000000000000000000000000000000000000000000000000000600052602260045260246000fd5b600060028204905060018216806105ae57607f821691505b6020821081036105c1576105c0610567565b5b5091905056fea2646970667358221220f45d46f08b79b27721b8f14ffb2ce850d8d16dd9a4115ed4c871c954647d92f764736f6c63430008120033",
  "linkReferences": {},
  "deployedLinkReferences": {}
}