{
  "_format": "hh-sol-artifact-1",
  "contractName": "deployattackpelusa",
  "sourceName": "contracts/deploy_attack_pelusa.sol",
  "abi": [
    {
      "inputs": [
        {
          "internalType": "address",
          "name": "_pelusacontractaddress",
          "type": "address"
        }
      ],
      "stateMutability": "nonpayable",
      "type": "constructor"
    },
    {
      "inputs": [],
      "name": "attack_pelusacontract",
      "outputs": [
        {
          "internalType": "contract attack_pelusa",
          "name": "",
          "type": "address"
        }
      ],
      "stateMutability": "view",
      "type": "function"
    },
    {
      "inputs": [],
      "name": "attackpelusacontract",
      "outputs": [
        {
          "internalType": "contract attack_pelusa",
          "name": "",
          "type": "address"
        }
      ],
      "stateMutability": "view",
      "type": "function"
    }
  ],
  "bytecode": "0x608060405234801561001057600080fd5b50604051610d17380380610d1783398181016040528101906100329190610240565b6000610043826100c560201b60201c565b90508082604051610053906101d0565b61005d919061027c565b8190604051809103906000f590508015801561007d573d6000803e3d6000fd5b50600160006101000a81548173ffffffffffffffffffffffffffffffffffffffff021916908373ffffffffffffffffffffffffffffffffffffffff1602179055505050610507565b600080600090506000604051806020016100de906101d0565b6020820181038252601f19601f8201166040525084604051602001610103919061027c565b604051602081830303815290604052604051602001610123929190610308565b6040516020818303038152906040528051906020012090505b6001156101c357600060ff60f81b308460001b8460405160200161016394939291906103ec565b604051602081830303815290604052805190602001209050600a60648260001c61018d9190610469565b73ffffffffffffffffffffffffffffffffffffffff16036101ae57506101c3565b6001836101bb91906104d3565b92505061013c565b8160001b92505050919050565b610670806106a783390190565b600080fd5b600073ffffffffffffffffffffffffffffffffffffffff82169050919050565b600061020d826101e2565b9050919050565b61021d81610202565b811461022857600080fd5b50565b60008151905061023a81610214565b92915050565b600060208284031215610256576102556101dd565b5b60006102648482850161022b565b91505092915050565b61027681610202565b82525050565b6000602082019050610291600083018461026d565b92915050565b600081519050919050565b600081905092915050565b60005b838110156102cb5780820151818401526020810190506102b0565b60008484015250505050565b60006102e282610297565b6102ec81856102a2565b93506102fc8185602086016102ad565b80840191505092915050565b600061031482856102d7565b915061032082846102d7565b91508190509392505050565b60007fff0000000000000000000000000000000000000000000000000000000000000082169050919050565b6000819050919050565b61037361036e8261032c565b610358565b82525050565b60008160601b9050919050565b600061039182610379565b9050919050565b60006103a382610386565b9050919050565b6103bb6103b682610202565b610398565b82525050565b6000819050919050565b6000819050919050565b6103e66103e1826103c1565b6103cb565b82525050565b60006103f88287610362565b60018201915061040882866103aa565b60148201915061041882856103d5565b60208201915061042882846103d5565b60208201915081905095945050505050565b7f4e487b7100000000000000000000000000000000000000000000000000000000600052601260045260246000fd5b6000610474826101e2565b915061047f836101e2565b92508261048f5761048e61043a565b5b828206905092915050565b6000819050919050565b7f4e487b7100000000000000000000000000000000000000000000000000000000600052601160045260246000fd5b60006104de8261049a565b91506104e98361049a565b9250828201905080821115610501576105006104a4565b5b92915050565b610191806105166000396000f3fe608060405234801561001057600080fd5b50600436106100365760003560e01c80632b6658731461003b578063dd12a60f14610059575b600080fd5b610043610077565b6040516100509190610140565b60405180910390f35b61006161009d565b60405161006e9190610140565b60405180910390f35b600160009054906101000a900473ffffffffffffffffffffffffffffffffffffffff1681565b60008054906101000a900473ffffffffffffffffffffffffffffffffffffffff1681565b600073ffffffffffffffffffffffffffffffffffffffff82169050919050565b6000819050919050565b60006101066101016100fc846100c1565b6100e1565b6100c1565b9050919050565b6000610118826100eb565b9050919050565b600061012a8261010d565b9050919050565b61013a8161011f565b82525050565b60006020820190506101556000830184610131565b9291505056fea264697066735822122009f14c7bb6abca9ba21567add4be960d406d7d95ee1d9e22219a61606966f13564736f6c63430008120033608060405234801561001057600080fd5b506040516106703803806106708339818101604052810190610032919061015e565b80600260006101000a81548173ffffffffffffffffffffffffffffffffffffffff021916908373ffffffffffffffffffffffffffffffffffffffff160217905550600260009054906101000a900473ffffffffffffffffffffffffffffffffffffffff1673ffffffffffffffffffffffffffffffffffffffff1663a50883396040518163ffffffff1660e01b8152600401600060405180830381600087803b1580156100dd57600080fd5b505af11580156100f1573d6000803e3d6000fd5b505050505061018b565b600080fd5b600073ffffffffffffffffffffffffffffffffffffffff82169050919050565b600061012b82610100565b9050919050565b61013b81610120565b811461014657600080fd5b50565b60008151905061015881610132565b92915050565b600060208284031215610174576101736100fb565b5b600061018284828501610149565b91505092915050565b6104d68061019a6000396000f3fe608060405234801561001057600080fd5b50600436106100625760003560e01c80630d8032fe1461006757806331e1785014610085578063478a4be5146100a15780638da5cb5b146100bf578063a067a24e146100dd578063e09235ad146100fb575b600080fd5b61006f610119565b60405161007c91906102b2565b60405180910390f35b61009f600480360381019061009a9190610330565b61012d565b005b6100a9610220565b6040516100b691906102b2565b60405180910390f35b6100c7610226565b6040516100d4919061036c565b60405180910390f35b6100e561024a565b6040516100f291906103e6565b60405180910390f35b610103610270565b604051610110919061036c565b60405180910390f35b60006002600181905550630150a3a2905090565b806000801b604051602001610143929190610474565b6040516020818303038152906040528051906020012060001c6000806101000a81548173ffffffffffffffffffffffffffffffffffffffff021916908373ffffffffffffffffffffffffffffffffffffffff160217905550600260009054906101000a900473ffffffffffffffffffffffffffffffffffffffff1673ffffffffffffffffffffffffffffffffffffffff1663d95f98ce6040518163ffffffff1660e01b8152600401600060405180830381600087803b15801561020557600080fd5b505af1158015610219573d6000803e3d6000fd5b5050505050565b60015481565b60008054906101000a900473ffffffffffffffffffffffffffffffffffffffff1681565b600260009054906101000a900473ffffffffffffffffffffffffffffffffffffffff1681565b60008060009054906101000a900473ffffffffffffffffffffffffffffffffffffffff16905090565b6000819050919050565b6102ac81610299565b82525050565b60006020820190506102c760008301846102a3565b92915050565b600080fd5b600073ffffffffffffffffffffffffffffffffffffffff82169050919050565b60006102fd826102d2565b9050919050565b61030d816102f2565b811461031857600080fd5b50565b60008135905061032a81610304565b92915050565b600060208284031215610346576103456102cd565b5b60006103548482850161031b565b91505092915050565b610366816102f2565b82525050565b6000602082019050610381600083018461035d565b92915050565b6000819050919050565b60006103ac6103a76103a2846102d2565b610387565b6102d2565b9050919050565b60006103be82610391565b9050919050565b60006103d0826103b3565b9050919050565b6103e0816103c5565b82525050565b60006020820190506103fb60008301846103d7565b92915050565b60008160601b9050919050565b600061041982610401565b9050919050565b600061042b8261040e565b9050919050565b61044361043e826102f2565b610420565b82525050565b6000819050919050565b6000819050919050565b61046e61046982610449565b610453565b82525050565b60006104808285610432565b601482019150610490828461045d565b602082019150819050939250505056fea2646970667358221220aeb83a7a73efc37af640eacdc385903885b85fde41b29581bc82ca9782e99d6d64736f6c63430008120033",
  "linkReferences": {},
  "deployedLinkReferences": {}
}