{
  "_format": "hh-sol-artifact-1",
  "contractName": "Attack_safeNFT",
  "sourceName": "contracts/Attack_safeNFT.sol",
  "abi": [
    {
      "inputs": [
        {
          "internalType": "uint256",
          "name": "_nftscount",
          "type": "uint256"
        },
        {
          "internalType": "address",
          "name": "_safenftcontractaddress",
          "type": "address"
        }
      ],
      "stateMutability": "nonpayable",
      "type": "constructor"
    },
    {
      "inputs": [],
      "name": "attacksafenft",
      "outputs": [],
      "stateMutability": "payable",
      "type": "function"
    },
    {
      "inputs": [],
      "name": "nftscounttobeminted",
      "outputs": [
        {
          "internalType": "uint256",
          "name": "",
          "type": "uint256"
        }
      ],
      "stateMutability": "view",
      "type": "function"
    },
    {
      "inputs": [
        {
          "internalType": "address",
          "name": "",
          "type": "address"
        },
        {
          "internalType": "address",
          "name": "",
          "type": "address"
        },
        {
          "internalType": "uint256",
          "name": "tokenId",
          "type": "uint256"
        },
        {
          "internalType": "bytes",
          "name": "",
          "type": "bytes"
        }
      ],
      "name": "onERC721Received",
      "outputs": [
        {
          "internalType": "bytes4",
          "name": "",
          "type": "bytes4"
        }
      ],
      "stateMutability": "nonpayable",
      "type": "function"
    },
    {
      "inputs": [],
      "name": "safenftcontract",
      "outputs": [
        {
          "internalType": "contract safeNFT",
          "name": "",
          "type": "address"
        }
      ],
      "stateMutability": "view",
      "type": "function"
    },
    {
      "inputs": [],
      "name": "totalmintednfts",
      "outputs": [
        {
          "internalType": "uint256",
          "name": "",
          "type": "uint256"
        }
      ],
      "stateMutability": "view",
      "type": "function"
    }
  ],
  "bytecode": "0x608060405234801561001057600080fd5b5060405161099c38038061099c8339818101604052810190610032919061015a565b33600160006101000a81548173ffffffffffffffffffffffffffffffffffffffff021916908373ffffffffffffffffffffffffffffffffffffffff160217905550806000806101000a81548173ffffffffffffffffffffffffffffffffffffffff021916908373ffffffffffffffffffffffffffffffffffffffff16021790555081600381905550505061019a565b600080fd5b6000819050919050565b6100d9816100c6565b81146100e457600080fd5b50565b6000815190506100f6816100d0565b92915050565b600073ffffffffffffffffffffffffffffffffffffffff82169050919050565b6000610127826100fc565b9050919050565b6101378161011c565b811461014257600080fd5b50565b6000815190506101548161012e565b92915050565b60008060408385031215610171576101706100c1565b5b600061017f858286016100e7565b925050602061019085828601610145565b9150509250929050565b6107f3806101a96000396000f3fe60806040526004361061004a5760003560e01c8063150b7a021461004f5780631e7d015c1461008c578063708ff219146100b7578063997f798b146100c1578063a1637c02146100ec575b600080fd5b34801561005b57600080fd5b50610076600480360381019061007191906104e5565b610117565b60405161008391906105a8565b60405180910390f35b34801561009857600080fd5b506100a16101d0565b6040516100ae91906105d2565b60405180910390f35b6100bf6101d6565b005b3480156100cd57600080fd5b506100d66103b8565b6040516100e391906105d2565b60405180910390f35b3480156100f857600080fd5b506101016103be565b60405161010e919061064c565b60405180910390f35b600060016003546101289190610696565b60025461013591906106ca565b8410156101bd5760008054906101000a900473ffffffffffffffffffffffffffffffffffffffff1673ffffffffffffffffffffffffffffffffffffffff16634e71d92d6040518163ffffffff1660e01b8152600401600060405180830381600087803b1580156101a457600080fd5b505af11580156101b8573d6000803e3d6000fd5b505050505b63150b7a0260e01b905095945050505050565b60035481565b67016345785d8a00003414610220576040517f08c379a00000000000000000000000000000000000000000000000000000000081526004016102179061075b565b60405180910390fd5b60008054906101000a900473ffffffffffffffffffffffffffffffffffffffff1673ffffffffffffffffffffffffffffffffffffffff1663bff29cee346040518263ffffffff1660e01b81526004016000604051808303818588803b15801561028857600080fd5b505af115801561029c573d6000803e3d6000fd5b505050505060008054906101000a900473ffffffffffffffffffffffffffffffffffffffff1673ffffffffffffffffffffffffffffffffffffffff16634e71d92d6040518163ffffffff1660e01b8152600401600060405180830381600087803b15801561030957600080fd5b505af115801561031d573d6000803e3d6000fd5b5050505060008054906101000a900473ffffffffffffffffffffffffffffffffffffffff1673ffffffffffffffffffffffffffffffffffffffff166318160ddd6040518163ffffffff1660e01b8152600401602060405180830381865afa15801561038c573d6000803e3d6000fd5b505050506040513d601f19601f820116820180604052508101906103b09190610790565b600281905550565b60025481565b60008054906101000a900473ffffffffffffffffffffffffffffffffffffffff1681565b600080fd5b600080fd5b600073ffffffffffffffffffffffffffffffffffffffff82169050919050565b6000610417826103ec565b9050919050565b6104278161040c565b811461043257600080fd5b50565b6000813590506104448161041e565b92915050565b6000819050919050565b61045d8161044a565b811461046857600080fd5b50565b60008135905061047a81610454565b92915050565b600080fd5b600080fd5b600080fd5b60008083601f8401126104a5576104a4610480565b5b8235905067ffffffffffffffff8111156104c2576104c1610485565b5b6020830191508360018202830111156104de576104dd61048a565b5b9250929050565b600080600080600060808688031215610501576105006103e2565b5b600061050f88828901610435565b955050602061052088828901610435565b94505060406105318882890161046b565b935050606086013567ffffffffffffffff811115610552576105516103e7565b5b61055e8882890161048f565b92509250509295509295909350565b60007fffffffff0000000000000000000000000000000000000000000000000000000082169050919050565b6105a28161056d565b82525050565b60006020820190506105bd6000830184610599565b92915050565b6105cc8161044a565b82525050565b60006020820190506105e760008301846105c3565b92915050565b6000819050919050565b600061061261060d610608846103ec565b6105ed565b6103ec565b9050919050565b6000610624826105f7565b9050919050565b600061063682610619565b9050919050565b6106468161062b565b82525050565b6000602082019050610661600083018461063d565b92915050565b7f4e487b7100000000000000000000000000000000000000000000000000000000600052601160045260246000fd5b60006106a18261044a565b91506106ac8361044a565b92508282039050818111156106c4576106c3610667565b5b92915050565b60006106d58261044a565b91506106e08361044a565b92508282019050808211156106f8576106f7610667565b5b92915050565b600082825260208201905092915050565b7f796f75206861766520746f2070617920302e3120657468657200000000000000600082015250565b60006107456019836106fe565b91506107508261070f565b602082019050919050565b6000602082019050818103600083015261077481610738565b9050919050565b60008151905061078a81610454565b92915050565b6000602082840312156107a6576107a56103e2565b5b60006107b48482850161077b565b9150509291505056fea264697066735822122038eb68efa37f093e3407b34bdf0818c1254559c7f9239d5fdcb9c2f1a5e254cb64736f6c63430008120033",
  "linkReferences": {},
  "deployedLinkReferences": {}
}