{
  "_format": "hh-sol-artifact-1",
  "contractName": "Pelusa",
  "sourceName": "contracts/Pelusa.sol",
  "abi": [
    {
      "inputs": [],
      "stateMutability": "nonpayable",
      "type": "constructor"
    },
    {
      "inputs": [],
      "name": "goals",
      "outputs": [
        {
          "internalType": "uint256",
          "name": "",
          "type": "uint256"
        }
      ],
      "stateMutability": "view",
      "type": "function"
    },
    {
      "inputs": [],
      "name": "isGoal",
      "outputs": [
        {
          "internalType": "bool",
          "name": "",
          "type": "bool"
        }
      ],
      "stateMutability": "view",
      "type": "function"
    },
    {
      "inputs": [],
      "name": "passTheBall",
      "outputs": [],
      "stateMutability": "nonpayable",
      "type": "function"
    },
    {
      "inputs": [],
      "name": "shoot",
      "outputs": [],
      "stateMutability": "nonpayable",
      "type": "function"
    }
  ],
  "bytecode": "0x60a06040526001805534801561001457600080fd5b5033434060405160200161002992919061011f565b6040516020818303038152906040528051906020012060001c73ffffffffffffffffffffffffffffffffffffffff1660808173ffffffffffffffffffffffffffffffffffffffff168152505061014b565b600073ffffffffffffffffffffffffffffffffffffffff82169050919050565b60006100a58261007a565b9050919050565b60008160601b9050919050565b60006100c4826100ac565b9050919050565b60006100d6826100b9565b9050919050565b6100ee6100e98261009a565b6100cb565b82525050565b6000819050919050565b6000819050919050565b610119610114826100f4565b6100fe565b82525050565b600061012b82856100dd565b60148201915061013b8284610108565b6020820191508190509392505050565b60805161085261016660003960006101ac01526108526000f3fe608060405234801561001057600080fd5b506004361061004c5760003560e01c8063478a4be514610051578063a50883391461006f578063a7a7e4e814610079578063d95f98ce14610097575b600080fd5b6100596100a1565b604051610066919061045b565b60405180910390f35b6100776100a7565b005b6100816101a8565b60405161008e9190610491565b60405180910390f35b61009f61028c565b005b60015481565b60003373ffffffffffffffffffffffffffffffffffffffff163b14610101576040517f08c379a00000000000000000000000000000000000000000000000000000000081526004016100f890610509565b60405180910390fd5b600a60643373ffffffffffffffffffffffffffffffffffffffff166101269190610558565b14610166576040517f08c379a000000000000000000000000000000000000000000000000000000000815260040161015d906105d5565b60405180910390fd5b336000806101000a81548173ffffffffffffffffffffffffffffffffffffffff021916908373ffffffffffffffffffffffffffffffffffffffff160217905550565b60007f000000000000000000000000000000000000000000000000000000000000000073ffffffffffffffffffffffffffffffffffffffff1660008054906101000a900473ffffffffffffffffffffffffffffffffffffffff1673ffffffffffffffffffffffffffffffffffffffff1663e09235ad6040518163ffffffff1660e01b8152600401602060405180830381865afa15801561024c573d6000803e3d6000fd5b505050506040513d601f19601f820116820180604052508101906102709190610658565b73ffffffffffffffffffffffffffffffffffffffff1614905090565b6102946101a8565b6102d3576040517f08c379a00000000000000000000000000000000000000000000000000000000081526004016102ca906106d1565b60405180910390fd5b60008060008054906101000a900473ffffffffffffffffffffffffffffffffffffffff1673ffffffffffffffffffffffffffffffffffffffff166040516024016040516020818303038152906040527f0d8032fe000000000000000000000000000000000000000000000000000000007bffffffffffffffffffffffffffffffffffffffffffffffffffffffff19166020820180517bffffffffffffffffffffffffffffffffffffffffffffffffffffffff838183161783525050505060405161039d9190610762565b600060405180830381855af49150503d80600081146103d8576040519150601f19603f3d011682016040523d82523d6000602084013e6103dd565b606091505b509150915081610422576040517f08c379a0000000000000000000000000000000000000000000000000000000008152600401610419906106d1565b60405180910390fd5b630150a3a281610431906107b5565b60001c1461043e57600080fd5b5050565b6000819050919050565b61045581610442565b82525050565b6000602082019050610470600083018461044c565b92915050565b60008115159050919050565b61048b81610476565b82525050565b60006020820190506104a66000830184610482565b92915050565b600082825260208201905092915050565b7f4f6e6c7920454f4120706c617965727300000000000000000000000000000000600082015250565b60006104f36010836104ac565b91506104fe826104bd565b602082019050919050565b60006020820190508181036000830152610522816104e6565b9050919050565b7f4e487b7100000000000000000000000000000000000000000000000000000000600052601260045260246000fd5b600061056382610442565b915061056e83610442565b92508261057e5761057d610529565b5b828206905092915050565b7f6e6f7420616c6c6f776564000000000000000000000000000000000000000000600082015250565b60006105bf600b836104ac565b91506105ca82610589565b602082019050919050565b600060208201905081810360008301526105ee816105b2565b9050919050565b600080fd5b600073ffffffffffffffffffffffffffffffffffffffff82169050919050565b6000610625826105fa565b9050919050565b6106358161061a565b811461064057600080fd5b50565b6000815190506106528161062c565b92915050565b60006020828403121561066e5761066d6105f5565b5b600061067c84828501610643565b91505092915050565b7f6d69737365640000000000000000000000000000000000000000000000000000600082015250565b60006106bb6006836104ac565b91506106c682610685565b602082019050919050565b600060208201905081810360008301526106ea816106ae565b9050919050565b600081519050919050565b600081905092915050565b60005b8381101561072557808201518184015260208101905061070a565b60008484015250505050565b600061073c826106f1565b61074681856106fc565b9350610756818560208601610707565b80840191505092915050565b600061076e8284610731565b915081905092915050565b6000819050602082019050919050565b6000819050919050565b600061079f8251610789565b80915050919050565b600082821b905092915050565b60006107c0826106f1565b826107ca84610779565b90506107d581610793565b92506020821015610815576108107fffffffffffffffffffffffffffffffffffffffffffffffffffffffffffffffff836020036008026107a8565b831692505b505091905056fea2646970667358221220b47ba1cc2a8a9b36cb2a3660ed36f67f90910a426db022642f5174c8d16ebef064736f6c63430008120033",
  "linkReferences": {},
  "deployedLinkReferences": {}
}