{
  "_format": "hh-sol-artifact-1",
  "contractName": "attack_pelusa",
  "sourceName": "contracts/attack_pelusa.sol",
  "abi": [
    {
      "inputs": [
        {
          "internalType": "address",
          "name": "_pelusacontractaddress",
          "type": "address"
        }
      ],
      "stateMutability": "nonpayable",
      "type": "constructor"
    },
    {
      "inputs": [
        {
          "internalType": "address",
          "name": "_contractdeployer",
          "type": "address"
        }
      ],
      "name": "attackpelusa",
      "outputs": [],
      "stateMutability": "nonpayable",
      "type": "function"
    },
    {
      "inputs": [],
      "name": "getBallPossesion",
      "outputs": [
        {
          "internalType": "address",
          "name": "",
          "type": "address"
        }
      ],
      "stateMutability": "view",
      "type": "function"
    },
    {
      "inputs": [],
      "name": "goals",
      "outputs": [
        {
          "internalType": "uint256",
          "name": "",
          "type": "uint256"
        }
      ],
      "stateMutability": "view",
      "type": "function"
    },
    {
      "inputs": [],
      "name": "handOfGod",
      "outputs": [
        {
          "internalType": "uint256",
          "name": "",
          "type": "uint256"
        }
      ],
      "stateMutability": "nonpayable",
      "type": "function"
    },
    {
      "inputs": [],
      "name": "owner",
      "outputs": [
        {
          "internalType": "address",
          "name": "",
          "type": "address"
        }
      ],
      "stateMutability": "view",
      "type": "function"
    },
    {
      "inputs": [],
      "name": "pelusacontract",
      "outputs": [
        {
          "internalType": "contract Pelusa",
          "name": "",
          "type": "address"
        }
      ],
      "stateMutability": "view",
      "type": "function"
    }
  ],
  "bytecode": "0x608060405234801561001057600080fd5b506040516106703803806106708339818101604052810190610032919061015e565b80600260006101000a81548173ffffffffffffffffffffffffffffffffffffffff021916908373ffffffffffffffffffffffffffffffffffffffff160217905550600260009054906101000a900473ffffffffffffffffffffffffffffffffffffffff1673ffffffffffffffffffffffffffffffffffffffff1663a50883396040518163ffffffff1660e01b8152600401600060405180830381600087803b1580156100dd57600080fd5b505af11580156100f1573d6000803e3d6000fd5b505050505061018b565b600080fd5b600073ffffffffffffffffffffffffffffffffffffffff82169050919050565b600061012b82610100565b9050919050565b61013b81610120565b811461014657600080fd5b50565b60008151905061015881610132565b92915050565b600060208284031215610174576101736100fb565b5b600061018284828501610149565b91505092915050565b6104d68061019a6000396000f3fe608060405234801561001057600080fd5b50600436106100625760003560e01c80630d8032fe1461006757806331e1785014610085578063478a4be5146100a15780638da5cb5b146100bf578063a067a24e146100dd578063e09235ad146100fb575b600080fd5b61006f610119565b60405161007c91906102b2565b60405180910390f35b61009f600480360381019061009a9190610330565b61012d565b005b6100a9610220565b6040516100b691906102b2565b60405180910390f35b6100c7610226565b6040516100d4919061036c565b60405180910390f35b6100e561024a565b6040516100f291906103e6565b60405180910390f35b610103610270565b604051610110919061036c565b60405180910390f35b60006002600181905550630150a3a2905090565b806000801b604051602001610143929190610474565b6040516020818303038152906040528051906020012060001c6000806101000a81548173ffffffffffffffffffffffffffffffffffffffff021916908373ffffffffffffffffffffffffffffffffffffffff160217905550600260009054906101000a900473ffffffffffffffffffffffffffffffffffffffff1673ffffffffffffffffffffffffffffffffffffffff1663d95f98ce6040518163ffffffff1660e01b8152600401600060405180830381600087803b15801561020557600080fd5b505af1158015610219573d6000803e3d6000fd5b5050505050565b60015481565b60008054906101000a900473ffffffffffffffffffffffffffffffffffffffff1681565b600260009054906101000a900473ffffffffffffffffffffffffffffffffffffffff1681565b60008060009054906101000a900473ffffffffffffffffffffffffffffffffffffffff16905090565b6000819050919050565b6102ac81610299565b82525050565b60006020820190506102c760008301846102a3565b92915050565b600080fd5b600073ffffffffffffffffffffffffffffffffffffffff82169050919050565b60006102fd826102d2565b9050919050565b61030d816102f2565b811461031857600080fd5b50565b60008135905061032a81610304565b92915050565b600060208284031215610346576103456102cd565b5b60006103548482850161031b565b91505092915050565b610366816102f2565b82525050565b6000602082019050610381600083018461035d565b92915050565b6000819050919050565b60006103ac6103a76103a2846102d2565b610387565b6102d2565b9050919050565b60006103be82610391565b9050919050565b60006103d0826103b3565b9050919050565b6103e0816103c5565b82525050565b60006020820190506103fb60008301846103d7565b92915050565b60008160601b9050919050565b600061041982610401565b9050919050565b600061042b8261040e565b9050919050565b61044361043e826102f2565b610420565b82525050565b6000819050919050565b6000819050919050565b61046e61046982610449565b610453565b82525050565b60006104808285610432565b601482019150610490828461045d565b602082019150819050939250505056fea2646970667358221220aeb83a7a73efc37af640eacdc385903885b85fde41b29581bc82ca9782e99d6d64736f6c63430008120033",
  "linkReferences": {},
  "deployedLinkReferences": {}
}