{
  "_format": "hh-sol-artifact-1",
  "contractName": "safeNFT",
  "sourceName": "contracts/safeNFT.sol",
  "abi": [
    {
      "inputs": [
        {
          "internalType": "string",
          "name": "tokenName",
          "type": "string"
        },
        {
          "internalType": "string",
          "name": "tokenSymbol",
          "type": "string"
        },
        {
          "internalType": "uint256",
          "name": "_price",
          "type": "uint256"
        }
      ],
      "stateMutability": "nonpayable",
      "type": "constructor"
    },
    {
      "anonymous": false,
      "inputs": [
        {
          "indexed": true,
          "internalType": "address",
          "name": "owner",
          "type": "address"
        },
        {
          "indexed": true,
          "internalType": "address",
          "name": "approved",
          "type": "address"
        },
        {
          "indexed": true,
          "internalType": "uint256",
          "name": "tokenId",
          "type": "uint256"
        }
      ],
      "name": "Approval",
      "type": "event"
    },
    {
      "anonymous": false,
      "inputs": [
        {
          "indexed": true,
          "internalType": "address",
          "name": "owner",
          "type": "address"
        },
        {
          "indexed": true,
          "internalType": "address",
          "name": "operator",
          "type": "address"
        },
        {
          "indexed": false,
          "internalType": "bool",
          "name": "approved",
          "type": "bool"
        }
      ],
      "name": "ApprovalForAll",
      "type": "event"
    },
    {
      "anonymous": false,
      "inputs": [
        {
          "indexed": true,
          "internalType": "address",
          "name": "from",
          "type": "address"
        },
        {
          "indexed": true,
          "internalType": "address",
          "name": "to",
          "type": "address"
        },
        {
          "indexed": true,
          "internalType": "uint256",
          "name": "tokenId",
          "type": "uint256"
        }
      ],
      "name": "Transfer",
      "type": "event"
    },
    {
      "inputs": [
        {
          "internalType": "address",
          "name": "to",
          "type": "address"
        },
        {
          "internalType": "uint256",
          "name": "tokenId",
          "type": "uint256"
        }
      ],
      "name": "approve",
      "outputs": [],
      "stateMutability": "nonpayable",
      "type": "function"
    },
    {
      "inputs": [
        {
          "internalType": "address",
          "name": "owner",
          "type": "address"
        }
      ],
      "name": "balanceOf",
      "outputs": [
        {
          "internalType": "uint256",
          "name": "",
          "type": "uint256"
        }
      ],
      "stateMutability": "view",
      "type": "function"
    },
    {
      "inputs": [],
      "name": "buyNFT",
      "outputs": [],
      "stateMutability": "payable",
      "type": "function"
    },
    {
      "inputs": [
        {
          "internalType": "address",
          "name": "",
          "type": "address"
        }
      ],
      "name": "canClaim",
      "outputs": [
        {
          "internalType": "bool",
          "name": "",
          "type": "bool"
        }
      ],
      "stateMutability": "view",
      "type": "function"
    },
    {
      "inputs": [],
      "name": "claim",
      "outputs": [],
      "stateMutability": "nonpayable",
      "type": "function"
    },
    {
      "inputs": [
        {
          "internalType": "uint256",
          "name": "tokenId",
          "type": "uint256"
        }
      ],
      "name": "getApproved",
      "outputs": [
        {
          "internalType": "address",
          "name": "",
          "type": "address"
        }
      ],
      "stateMutability": "view",
      "type": "function"
    },
    {
      "inputs": [
        {
          "internalType": "address",
          "name": "owner",
          "type": "address"
        },
        {
          "internalType": "address",
          "name": "operator",
          "type": "address"
        }
      ],
      "name": "isApprovedForAll",
      "outputs": [
        {
          "internalType": "bool",
          "name": "",
          "type": "bool"
        }
      ],
      "stateMutability": "view",
      "type": "function"
    },
    {
      "inputs": [],
      "name": "name",
      "outputs": [
        {
          "internalType": "string",
          "name": "",
          "type": "string"
        }
      ],
      "stateMutability": "view",
      "type": "function"
    },
    {
      "inputs": [
        {
          "internalType": "uint256",
          "name": "tokenId",
          "type": "uint256"
        }
      ],
      "name": "ownerOf",
      "outputs": [
        {
          "internalType": "address",
          "name": "",
          "type": "address"
        }
      ],
      "stateMutability": "view",
      "type": "function"
    },
    {
      "inputs": [
        {
          "internalType": "address",
          "name": "from",
          "type": "address"
        },
        {
          "internalType": "address",
          "name": "to",
          "type": "address"
        },
        {
          "internalType": "uint256",
          "name": "tokenId",
          "type": "uint256"
        }
      ],
      "name": "safeTransferFrom",
      "outputs": [],
      "stateMutability": "nonpayable",
      "type": "function"
    },
    {
      "inputs": [
        {
          "internalType": "address",
          "name": "from",
          "type": "address"
        },
        {
          "internalType": "address",
          "name": "to",
          "type": "address"
        },
        {
          "internalType": "uint256",
          "name": "tokenId",
          "type": "uint256"
        },
        {
          "internalType": "bytes",
          "name": "data",
          "type": "bytes"
        }
      ],
      "name": "safeTransferFrom",
      "outputs": [],
      "stateMutability": "nonpayable",
      "type": "function"
    },
    {
      "inputs": [
        {
          "internalType": "address",
          "name": "operator",
          "type": "address"
        },
        {
          "internalType": "bool",
          "name": "approved",
          "type": "bool"
        }
      ],
      "name": "setApprovalForAll",
      "outputs": [],
      "stateMutability": "nonpayable",
      "type": "function"
    },
    {
      "inputs": [
        {
          "internalType": "bytes4",
          "name": "interfaceId",
          "type": "bytes4"
        }
      ],
      "name": "supportsInterface",
      "outputs": [
        {
          "internalType": "bool",
          "name": "",
          "type": "bool"
        }
      ],
      "stateMutability": "view",
      "type": "function"
    },
    {
      "inputs": [],
      "name": "symbol",
      "outputs": [
        {
          "internalType": "string",
          "name": "",
          "type": "string"
        }
      ],
      "stateMutability": "view",
      "type": "function"
    },
    {
      "inputs": [
        {
          "internalType": "uint256",
          "name": "index",
          "type": "uint256"
        }
      ],
      "name": "tokenByIndex",
      "outputs": [
        {
          "internalType": "uint256",
          "name": "",
          "type": "uint256"
        }
      ],
      "stateMutability": "view",
      "type": "function"
    },
    {
      "inputs": [
        {
          "internalType": "address",
          "name": "owner",
          "type": "address"
        },
        {
          "internalType": "uint256",
          "name": "index",
          "type": "uint256"
        }
      ],
      "name": "tokenOfOwnerByIndex",
      "outputs": [
        {
          "internalType": "uint256",
          "name": "",
          "type": "uint256"
        }
      ],
      "stateMutability": "view",
      "type": "function"
    },
    {
      "inputs": [
        {
          "internalType": "uint256",
          "name": "tokenId",
          "type": "uint256"
        }
      ],
      "name": "tokenURI",
      "outputs": [
        {
          "internalType": "string",
          "name": "",
          "type": "string"
        }
      ],
      "stateMutability": "view",
      "type": "function"
    },
    {
      "inputs": [],
      "name": "totalSupply",
      "outputs": [
        {
          "internalType": "uint256",
          "name": "",
          "type": "uint256"
        }
      ],
      "stateMutability": "view",
      "type": "function"
    },
    {
      "inputs": [
        {
          "internalType": "address",
          "name": "from",
          "type": "address"
        },
        {
          "internalType": "address",
          "name": "to",
          "type": "address"
        },
        {
          "internalType": "uint256",
          "name": "tokenId",
          "type": "uint256"
        }
      ],
      "name": "transferFrom",
      "outputs": [],
      "stateMutability": "nonpayable",
      "type": "function"
    }
  ],
  "bytecode": "0x60806040523480156200001157600080fd5b50604051620037933803806200379383398181016040528101906200003791906200023d565b828281600090816200004a919062000518565b5080600190816200005c919062000518565b50505080600a81905550505050620005ff565b6000604051905090565b600080fd5b600080fd5b600080fd5b600080fd5b6000601f19601f8301169050919050565b7f4e487b7100000000000000000000000000000000000000000000000000000000600052604160045260246000fd5b620000d8826200008d565b810181811067ffffffffffffffff82111715620000fa57620000f96200009e565b5b80604052505050565b60006200010f6200006f565b90506200011d8282620000cd565b919050565b600067ffffffffffffffff82111562000140576200013f6200009e565b5b6200014b826200008d565b9050602081019050919050565b60005b83811015620001785780820151818401526020810190506200015b565b60008484015250505050565b60006200019b620001958462000122565b62000103565b905082815260208101848484011115620001ba57620001b962000088565b5b620001c784828562000158565b509392505050565b600082601f830112620001e757620001e662000083565b5b8151620001f984826020860162000184565b91505092915050565b6000819050919050565b620002178162000202565b81146200022357600080fd5b50565b60008151905062000237816200020c565b92915050565b60008060006060848603121562000259576200025862000079565b5b600084015167ffffffffffffffff8111156200027a57620002796200007e565b5b6200028886828701620001cf565b935050602084015167ffffffffffffffff811115620002ac57620002ab6200007e565b5b620002ba86828701620001cf565b9250506040620002cd8682870162000226565b9150509250925092565b600081519050919050565b7f4e487b7100000000000000000000000000000000000000000000000000000000600052602260045260246000fd5b600060028204905060018216806200032a57607f821691505b60208210810362000340576200033f620002e2565b5b50919050565b60008190508160005260206000209050919050565b60006020601f8301049050919050565b600082821b905092915050565b600060088302620003aa7fffffffffffffffffffffffffffffffffffffffffffffffffffffffffffffffff826200036b565b620003b686836200036b565b95508019841693508086168417925050509392505050565b6000819050919050565b6000620003f9620003f3620003ed8462000202565b620003ce565b62000202565b9050919050565b6000819050919050565b6200041583620003d8565b6200042d620004248262000400565b84845462000378565b825550505050565b600090565b6200044462000435565b620004518184846200040a565b505050565b5b8181101562000479576200046d6000826200043a565b60018101905062000457565b5050565b601f821115620004c857620004928162000346565b6200049d846200035b565b81016020851015620004ad578190505b620004c5620004bc856200035b565b83018262000456565b50505b505050565b600082821c905092915050565b6000620004ed60001984600802620004cd565b1980831691505092915050565b6000620005088383620004da565b9150826002028217905092915050565b6200052382620002d7565b67ffffffffffffffff8111156200053f576200053e6200009e565b5b6200054b825462000311565b620005588282856200047d565b600060209050601f8311600181146200059057600084156200057b578287015190505b620005878582620004fa565b865550620005f7565b601f198416620005a08662000346565b60005b82811015620005ca57848901518255600182019150602085019450602081019050620005a3565b86831015620005ea5784890151620005e6601f891682620004da565b8355505b6001600288020188555050505b505050505050565b613184806200060f6000396000f3fe6080604052600436106101145760003560e01c80634f6ccce7116100a0578063b88d4fde11610064578063b88d4fde146103c3578063bf3506c1146103ec578063bff29cee14610429578063c87b56dd14610433578063e985e9c51461047057610114565b80634f6ccce7146102b85780636352211e146102f557806370a082311461033257806395d89b411461036f578063a22cb4651461039a57610114565b806318160ddd116100e757806318160ddd146101e757806323b872dd146102125780632f745c591461023b57806342842e0e146102785780634e71d92d146102a157610114565b806301ffc9a71461011957806306fdde0314610156578063081812fc14610181578063095ea7b3146101be575b600080fd5b34801561012557600080fd5b50610140600480360381019061013b9190612131565b6104ad565b60405161014d9190612179565b60405180910390f35b34801561016257600080fd5b5061016b610527565b6040516101789190612224565b60405180910390f35b34801561018d57600080fd5b506101a860048036038101906101a3919061227c565b6105b9565b6040516101b591906122ea565b60405180910390f35b3480156101ca57600080fd5b506101e560048036038101906101e09190612331565b6105ff565b005b3480156101f357600080fd5b506101fc610716565b6040516102099190612380565b60405180910390f35b34801561021e57600080fd5b506102396004803603810190610234919061239b565b610723565b005b34801561024757600080fd5b50610262600480360381019061025d9190612331565b610783565b60405161026f9190612380565b60405180910390f35b34801561028457600080fd5b5061029f600480360381019061029a919061239b565b610828565b005b3480156102ad57600080fd5b506102b6610848565b005b3480156102c457600080fd5b506102df60048036038101906102da919061227c565b61093f565b6040516102ec9190612380565b60405180910390f35b34801561030157600080fd5b5061031c6004803603810190610317919061227c565b6109b0565b60405161032991906122ea565b60405180910390f35b34801561033e57600080fd5b50610359600480360381019061035491906123ee565b610a36565b6040516103669190612380565b60405180910390f35b34801561037b57600080fd5b50610384610aed565b6040516103919190612224565b60405180910390f35b3480156103a657600080fd5b506103c160048036038101906103bc9190612447565b610b7f565b005b3480156103cf57600080fd5b506103ea60048036038101906103e591906125bc565b610b95565b005b3480156103f857600080fd5b50610413600480360381019061040e91906123ee565b610bf7565b6040516104209190612179565b60405180910390f35b610431610c17565b005b34801561043f57600080fd5b5061045a6004803603810190610455919061227c565b610cb5565b6040516104679190612224565b60405180910390f35b34801561047c57600080fd5b506104976004803603810190610492919061263f565b610d1d565b6040516104a49190612179565b60405180910390f35b60007f780e9d63000000000000000000000000000000000000000000000000000000007bffffffffffffffffffffffffffffffffffffffffffffffffffffffff1916827bffffffffffffffffffffffffffffffffffffffffffffffffffffffff19161480610520575061051f82610db1565b5b9050919050565b606060008054610536906126ae565b80601f0160208091040260200160405190810160405280929190818152602001828054610562906126ae565b80156105af5780601f10610584576101008083540402835291602001916105af565b820191906000526020600020905b81548152906001019060200180831161059257829003601f168201915b5050505050905090565b60006105c482610e93565b6004600083815260200190815260200160002060009054906101000a900473ffffffffffffffffffffffffffffffffffffffff169050919050565b600061060a826109b0565b90508073ffffffffffffffffffffffffffffffffffffffff168373ffffffffffffffffffffffffffffffffffffffff160361067a576040517f08c379a000000000000000000000000000000000000000000000000000000000815260040161067190612751565b60405180910390fd5b8073ffffffffffffffffffffffffffffffffffffffff16610699610ede565b73ffffffffffffffffffffffffffffffffffffffff1614806106c857506106c7816106c2610ede565b610d1d565b5b610707576040517f08c379a00000000000000000000000000000000000000000000000000000000081526004016106fe906127e3565b60405180910390fd5b6107118383610ee6565b505050565b6000600880549050905090565b61073461072e610ede565b82610f9f565b610773576040517f08c379a000000000000000000000000000000000000000000000000000000000815260040161076a90612875565b60405180910390fd5b61077e838383611034565b505050565b600061078e83610a36565b82106107cf576040517f08c379a00000000000000000000000000000000000000000000000000000000081526004016107c690612907565b60405180910390fd5b600660008473ffffffffffffffffffffffffffffffffffffffff1673ffffffffffffffffffffffffffffffffffffffff168152602001908152602001600020600083815260200190815260200160002054905092915050565b61084383838360405180602001604052806000815250610b95565b505050565b600b60003373ffffffffffffffffffffffffffffffffffffffff1673ffffffffffffffffffffffffffffffffffffffff16815260200190815260200160002060009054906101000a900460ff166108d4576040517f08c379a00000000000000000000000000000000000000000000000000000000081526004016108cb90612973565b60405180910390fd5b6108e5336108e0610716565b61132d565b6000600b60003373ffffffffffffffffffffffffffffffffffffffff1673ffffffffffffffffffffffffffffffffffffffff16815260200190815260200160002060006101000a81548160ff021916908315150217905550565b6000610949610716565b821061098a576040517f08c379a000000000000000000000000000000000000000000000000000000000815260040161098190612a05565b60405180910390fd5b6008828154811061099e5761099d612a25565b5b90600052602060002001549050919050565b6000806109bc8361134b565b9050600073ffffffffffffffffffffffffffffffffffffffff168173ffffffffffffffffffffffffffffffffffffffff1603610a2d576040517f08c379a0000000000000000000000000000000000000000000000000000000008152600401610a2490612aa0565b60405180910390fd5b80915050919050565b60008073ffffffffffffffffffffffffffffffffffffffff168273ffffffffffffffffffffffffffffffffffffffff1603610aa6576040517f08c379a0000000000000000000000000000000000000000000000000000000008152600401610a9d90612b32565b60405180910390fd5b600360008373ffffffffffffffffffffffffffffffffffffffff1673ffffffffffffffffffffffffffffffffffffffff168152602001908152602001600020549050919050565b606060018054610afc906126ae565b80601f0160208091040260200160405190810160405280929190818152602001828054610b28906126ae565b8015610b755780601f10610b4a57610100808354040283529160200191610b75565b820191906000526020600020905b815481529060010190602001808311610b5857829003601f168201915b5050505050905090565b610b91610b8a610ede565b8383611388565b5050565b610ba6610ba0610ede565b83610f9f565b610be5576040517f08c379a0000000000000000000000000000000000000000000000000000000008152600401610bdc90612875565b60405180910390fd5b610bf1848484846114f4565b50505050565b600b6020528060005260406000206000915054906101000a900460ff1681565b34600a5414610c5b576040517f08c379a0000000000000000000000000000000000000000000000000000000008152600401610c5290612b9e565b60405180910390fd5b6001600b60003373ffffffffffffffffffffffffffffffffffffffff1673ffffffffffffffffffffffffffffffffffffffff16815260200190815260200160002060006101000a81548160ff021916908315150217905550565b6060610cc082610e93565b6000610cca611550565b90506000815111610cea5760405180602001604052806000815250610d15565b80610cf484611567565b604051602001610d05929190612bfa565b6040516020818303038152906040525b915050919050565b6000600560008473ffffffffffffffffffffffffffffffffffffffff1673ffffffffffffffffffffffffffffffffffffffff16815260200190815260200160002060008373ffffffffffffffffffffffffffffffffffffffff1673ffffffffffffffffffffffffffffffffffffffff16815260200190815260200160002060009054906101000a900460ff16905092915050565b60007f80ac58cd000000000000000000000000000000000000000000000000000000007bffffffffffffffffffffffffffffffffffffffffffffffffffffffff1916827bffffffffffffffffffffffffffffffffffffffffffffffffffffffff19161480610e7c57507f5b5e139f000000000000000000000000000000000000000000000000000000007bffffffffffffffffffffffffffffffffffffffffffffffffffffffff1916827bffffffffffffffffffffffffffffffffffffffffffffffffffffffff1916145b80610e8c5750610e8b82611635565b5b9050919050565b610e9c8161169f565b610edb576040517f08c379a0000000000000000000000000000000000000000000000000000000008152600401610ed290612aa0565b60405180910390fd5b50565b600033905090565b816004600083815260200190815260200160002060006101000a81548173ffffffffffffffffffffffffffffffffffffffff021916908373ffffffffffffffffffffffffffffffffffffffff160217905550808273ffffffffffffffffffffffffffffffffffffffff16610f59836109b0565b73ffffffffffffffffffffffffffffffffffffffff167f8c5be1e5ebec7d5bd14f71427d1e84f3dd0314c0f7b2291e5b200ac8c7c3b92560405160405180910390a45050565b600080610fab836109b0565b90508073ffffffffffffffffffffffffffffffffffffffff168473ffffffffffffffffffffffffffffffffffffffff161480610fed5750610fec8185610d1d565b5b8061102b57508373ffffffffffffffffffffffffffffffffffffffff16611013846105b9565b73ffffffffffffffffffffffffffffffffffffffff16145b91505092915050565b8273ffffffffffffffffffffffffffffffffffffffff16611054826109b0565b73ffffffffffffffffffffffffffffffffffffffff16146110aa576040517f08c379a00000000000000000000000000000000000000000000000000000000081526004016110a190612c90565b60405180910390fd5b600073ffffffffffffffffffffffffffffffffffffffff168273ffffffffffffffffffffffffffffffffffffffff1603611119576040517f08c379a000000000000000000000000000000000000000000000000000000000815260040161111090612d22565b60405180910390fd5b61112683838360016116e0565b8273ffffffffffffffffffffffffffffffffffffffff16611146826109b0565b73ffffffffffffffffffffffffffffffffffffffff161461119c576040517f08c379a000000000000000000000000000000000000000000000000000000000815260040161119390612c90565b60405180910390fd5b6004600082815260200190815260200160002060006101000a81549073ffffffffffffffffffffffffffffffffffffffff02191690556001600360008573ffffffffffffffffffffffffffffffffffffffff1673ffffffffffffffffffffffffffffffffffffffff168152602001908152602001600020600082825403925050819055506001600360008473ffffffffffffffffffffffffffffffffffffffff1673ffffffffffffffffffffffffffffffffffffffff16815260200190815260200160002060008282540192505081905550816002600083815260200190815260200160002060006101000a81548173ffffffffffffffffffffffffffffffffffffffff021916908373ffffffffffffffffffffffffffffffffffffffff160217905550808273ffffffffffffffffffffffffffffffffffffffff168473ffffffffffffffffffffffffffffffffffffffff167fddf252ad1be2c89b69c2b068fc378daa952ba7f163c4a11628f55a4df523b3ef60405160405180910390a4611328838383600161183e565b505050565b611347828260405180602001604052806000815250611844565b5050565b60006002600083815260200190815260200160002060009054906101000a900473ffffffffffffffffffffffffffffffffffffffff169050919050565b8173ffffffffffffffffffffffffffffffffffffffff168373ffffffffffffffffffffffffffffffffffffffff16036113f6576040517f08c379a00000000000000000000000000000000000000000000000000000000081526004016113ed90612d8e565b60405180910390fd5b80600560008573ffffffffffffffffffffffffffffffffffffffff1673ffffffffffffffffffffffffffffffffffffffff16815260200190815260200160002060008473ffffffffffffffffffffffffffffffffffffffff1673ffffffffffffffffffffffffffffffffffffffff16815260200190815260200160002060006101000a81548160ff0219169083151502179055508173ffffffffffffffffffffffffffffffffffffffff168373ffffffffffffffffffffffffffffffffffffffff167f17307eab39ab6107e8899845ad3d59bd9653f200f220920489ca2b5937696c31836040516114e79190612179565b60405180910390a3505050565b6114ff848484611034565b61150b8484848461189f565b61154a576040517f08c379a000000000000000000000000000000000000000000000000000000000815260040161154190612e20565b60405180910390fd5b50505050565b606060405180602001604052806000815250905090565b60606000600161157684611a26565b01905060008167ffffffffffffffff81111561159557611594612491565b5b6040519080825280601f01601f1916602001820160405280156115c75781602001600182028036833780820191505090505b509050600082602001820190505b60011561162a578080600190039150507f3031323334353637383961626364656600000000000000000000000000000000600a86061a8153600a858161161e5761161d612e40565b5b049450600085036115d5575b819350505050919050565b60007f01ffc9a7000000000000000000000000000000000000000000000000000000007bffffffffffffffffffffffffffffffffffffffffffffffffffffffff1916827bffffffffffffffffffffffffffffffffffffffffffffffffffffffff1916149050919050565b60008073ffffffffffffffffffffffffffffffffffffffff166116c18361134b565b73ffffffffffffffffffffffffffffffffffffffff1614159050919050565b6116ec84848484611b79565b6001811115611730576040517f08c379a000000000000000000000000000000000000000000000000000000000815260040161172790612ee1565b60405180910390fd5b6000829050600073ffffffffffffffffffffffffffffffffffffffff168573ffffffffffffffffffffffffffffffffffffffff16036117775761177281611b7f565b6117b6565b8373ffffffffffffffffffffffffffffffffffffffff168573ffffffffffffffffffffffffffffffffffffffff16146117b5576117b48582611bc8565b5b5b600073ffffffffffffffffffffffffffffffffffffffff168473ffffffffffffffffffffffffffffffffffffffff16036117f8576117f381611d35565b611837565b8473ffffffffffffffffffffffffffffffffffffffff168473ffffffffffffffffffffffffffffffffffffffff1614611836576118358482611e06565b5b5b5050505050565b50505050565b61184e8383611e85565b61185b600084848461189f565b61189a576040517f08c379a000000000000000000000000000000000000000000000000000000000815260040161189190612e20565b60405180910390fd5b505050565b60006118c08473ffffffffffffffffffffffffffffffffffffffff166120a2565b15611a19578373ffffffffffffffffffffffffffffffffffffffff1663150b7a026118e9610ede565b8786866040518563ffffffff1660e01b815260040161190b9493929190612f56565b6020604051808303816000875af192505050801561194757506040513d601f19601f820116820180604052508101906119449190612fb7565b60015b6119c9573d8060008114611977576040519150601f19603f3d011682016040523d82523d6000602084013e61197c565b606091505b5060008151036119c1576040517f08c379a00000000000000000000000000000000000000000000000000000000081526004016119b890612e20565b60405180910390fd5b805181602001fd5b63150b7a0260e01b7bffffffffffffffffffffffffffffffffffffffffffffffffffffffff1916817bffffffffffffffffffffffffffffffffffffffffffffffffffffffff191614915050611a1e565b600190505b949350505050565b600080600090507a184f03e93ff9f4daa797ed6e38ed64bf6a1f0100000000000000008310611a84577a184f03e93ff9f4daa797ed6e38ed64bf6a1f0100000000000000008381611a7a57611a79612e40565b5b0492506040810190505b6d04ee2d6d415b85acef81000000008310611ac1576d04ee2d6d415b85acef81000000008381611ab757611ab6612e40565b5b0492506020810190505b662386f26fc100008310611af057662386f26fc100008381611ae657611ae5612e40565b5b0492506010810190505b6305f5e1008310611b19576305f5e1008381611b0f57611b0e612e40565b5b0492506008810190505b6127108310611b3e576127108381611b3457611b33612e40565b5b0492506004810190505b60648310611b615760648381611b5757611b56612e40565b5b0492506002810190505b600a8310611b70576001810190505b80915050919050565b50505050565b6008805490506009600083815260200190815260200160002081905550600881908060018154018082558091505060019003906000526020600020016000909190919091505550565b60006001611bd584610a36565b611bdf9190613013565b9050600060076000848152602001908152602001600020549050818114611cc4576000600660008673ffffffffffffffffffffffffffffffffffffffff1673ffffffffffffffffffffffffffffffffffffffff168152602001908152602001600020600084815260200190815260200160002054905080600660008773ffffffffffffffffffffffffffffffffffffffff1673ffffffffffffffffffffffffffffffffffffffff168152602001908152602001600020600084815260200190815260200160002081905550816007600083815260200190815260200160002081905550505b6007600084815260200190815260200160002060009055600660008573ffffffffffffffffffffffffffffffffffffffff1673ffffffffffffffffffffffffffffffffffffffff16815260200190815260200160002060008381526020019081526020016000206000905550505050565b60006001600880549050611d499190613013565b9050600060096000848152602001908152602001600020549050600060088381548110611d7957611d78612a25565b5b906000526020600020015490508060088381548110611d9b57611d9a612a25565b5b906000526020600020018190555081600960008381526020019081526020016000208190555060096000858152602001908152602001600020600090556008805480611dea57611de9613047565b5b6001900381819060005260206000200160009055905550505050565b6000611e1183610a36565b905081600660008573ffffffffffffffffffffffffffffffffffffffff1673ffffffffffffffffffffffffffffffffffffffff168152602001908152602001600020600083815260200190815260200160002081905550806007600084815260200190815260200160002081905550505050565b600073ffffffffffffffffffffffffffffffffffffffff168273ffffffffffffffffffffffffffffffffffffffff1603611ef4576040517f08c379a0000000000000000000000000000000000000000000000000000000008152600401611eeb906130c2565b60405180910390fd5b611efd8161169f565b15611f3d576040517f08c379a0000000000000000000000000000000000000000000000000000000008152600401611f349061312e565b60405180910390fd5b611f4b6000838360016116e0565b611f548161169f565b15611f94576040517f08c379a0000000000000000000000000000000000000000000000000000000008152600401611f8b9061312e565b60405180910390fd5b6001600360008473ffffffffffffffffffffffffffffffffffffffff1673ffffffffffffffffffffffffffffffffffffffff16815260200190815260200160002060008282540192505081905550816002600083815260200190815260200160002060006101000a81548173ffffffffffffffffffffffffffffffffffffffff021916908373ffffffffffffffffffffffffffffffffffffffff160217905550808273ffffffffffffffffffffffffffffffffffffffff16600073ffffffffffffffffffffffffffffffffffffffff167fddf252ad1be2c89b69c2b068fc378daa952ba7f163c4a11628f55a4df523b3ef60405160405180910390a461209e60008383600161183e565b5050565b6000808273ffffffffffffffffffffffffffffffffffffffff163b119050919050565b6000604051905090565b600080fd5b600080fd5b60007fffffffff0000000000000000000000000000000000000000000000000000000082169050919050565b61210e816120d9565b811461211957600080fd5b50565b60008135905061212b81612105565b92915050565b600060208284031215612147576121466120cf565b5b60006121558482850161211c565b91505092915050565b60008115159050919050565b6121738161215e565b82525050565b600060208201905061218e600083018461216a565b92915050565b600081519050919050565b600082825260208201905092915050565b60005b838110156121ce5780820151818401526020810190506121b3565b60008484015250505050565b6000601f19601f8301169050919050565b60006121f682612194565b612200818561219f565b93506122108185602086016121b0565b612219816121da565b840191505092915050565b6000602082019050818103600083015261223e81846121eb565b905092915050565b6000819050919050565b61225981612246565b811461226457600080fd5b50565b60008135905061227681612250565b92915050565b600060208284031215612292576122916120cf565b5b60006122a084828501612267565b91505092915050565b600073ffffffffffffffffffffffffffffffffffffffff82169050919050565b60006122d4826122a9565b9050919050565b6122e4816122c9565b82525050565b60006020820190506122ff60008301846122db565b92915050565b61230e816122c9565b811461231957600080fd5b50565b60008135905061232b81612305565b92915050565b60008060408385031215612348576123476120cf565b5b60006123568582860161231c565b925050602061236785828601612267565b9150509250929050565b61237a81612246565b82525050565b60006020820190506123956000830184612371565b92915050565b6000806000606084860312156123b4576123b36120cf565b5b60006123c28682870161231c565b93505060206123d38682870161231c565b92505060406123e486828701612267565b9150509250925092565b600060208284031215612404576124036120cf565b5b60006124128482850161231c565b91505092915050565b6124248161215e565b811461242f57600080fd5b50565b6000813590506124418161241b565b92915050565b6000806040838503121561245e5761245d6120cf565b5b600061246c8582860161231c565b925050602061247d85828601612432565b9150509250929050565b600080fd5b600080fd5b7f4e487b7100000000000000000000000000000000000000000000000000000000600052604160045260246000fd5b6124c9826121da565b810181811067ffffffffffffffff821117156124e8576124e7612491565b5b80604052505050565b60006124fb6120c5565b905061250782826124c0565b919050565b600067ffffffffffffffff82111561252757612526612491565b5b612530826121da565b9050602081019050919050565b82818337600083830152505050565b600061255f61255a8461250c565b6124f1565b90508281526020810184848401111561257b5761257a61248c565b5b61258684828561253d565b509392505050565b600082601f8301126125a3576125a2612487565b5b81356125b384826020860161254c565b91505092915050565b600080600080608085870312156125d6576125d56120cf565b5b60006125e48782880161231c565b94505060206125f58782880161231c565b935050604061260687828801612267565b925050606085013567ffffffffffffffff811115612627576126266120d4565b5b6126338782880161258e565b91505092959194509250565b60008060408385031215612656576126556120cf565b5b60006126648582860161231c565b92505060206126758582860161231c565b9150509250929050565b7f4e487b7100000000000000000000000000000000000000000000000000000000600052602260045260246000fd5b600060028204905060018216806126c657607f821691505b6020821081036126d9576126d861267f565b5b50919050565b7f4552433732313a20617070726f76616c20746f2063757272656e74206f776e6560008201527f7200000000000000000000000000000000000000000000000000000000000000602082015250565b600061273b60218361219f565b9150612746826126df565b604082019050919050565b6000602082019050818103600083015261276a8161272e565b9050919050565b7f4552433732313a20617070726f76652063616c6c6572206973206e6f7420746f60008201527f6b656e206f776e6572206f7220617070726f76656420666f7220616c6c000000602082015250565b60006127cd603d8361219f565b91506127d882612771565b604082019050919050565b600060208201905081810360008301526127fc816127c0565b9050919050565b7f4552433732313a2063616c6c6572206973206e6f7420746f6b656e206f776e6560008201527f72206f7220617070726f76656400000000000000000000000000000000000000602082015250565b600061285f602d8361219f565b915061286a82612803565b604082019050919050565b6000602082019050818103600083015261288e81612852565b9050919050565b7f455243373231456e756d657261626c653a206f776e657220696e646578206f7560008201527f74206f6620626f756e6473000000000000000000000000000000000000000000602082015250565b60006128f1602b8361219f565b91506128fc82612895565b604082019050919050565b60006020820190508181036000830152612920816128e4565b9050919050565b7f43414e545f4d494e540000000000000000000000000000000000000000000000600082015250565b600061295d60098361219f565b915061296882612927565b602082019050919050565b6000602082019050818103600083015261298c81612950565b9050919050565b7f455243373231456e756d657261626c653a20676c6f62616c20696e646578206f60008201527f7574206f6620626f756e64730000000000000000000000000000000000000000602082015250565b60006129ef602c8361219f565b91506129fa82612993565b604082019050919050565b60006020820190508181036000830152612a1e816129e2565b9050919050565b7f4e487b7100000000000000000000000000000000000000000000000000000000600052603260045260246000fd5b7f4552433732313a20696e76616c696420746f6b656e2049440000000000000000600082015250565b6000612a8a60188361219f565b9150612a9582612a54565b602082019050919050565b60006020820190508181036000830152612ab981612a7d565b9050919050565b7f4552433732313a2061646472657373207a65726f206973206e6f74206120766160008201527f6c6964206f776e65720000000000000000000000000000000000000000000000602082015250565b6000612b1c60298361219f565b9150612b2782612ac0565b604082019050919050565b60006020820190508181036000830152612b4b81612b0f565b9050919050565b7f494e56414c49445f56414c554500000000000000000000000000000000000000600082015250565b6000612b88600d8361219f565b9150612b9382612b52565b602082019050919050565b60006020820190508181036000830152612bb781612b7b565b9050919050565b600081905092915050565b6000612bd482612194565b612bde8185612bbe565b9350612bee8185602086016121b0565b80840191505092915050565b6000612c068285612bc9565b9150612c128284612bc9565b91508190509392505050565b7f4552433732313a207472616e736665722066726f6d20696e636f72726563742060008201527f6f776e6572000000000000000000000000000000000000000000000000000000602082015250565b6000612c7a60258361219f565b9150612c8582612c1e565b604082019050919050565b60006020820190508181036000830152612ca981612c6d565b9050919050565b7f4552433732313a207472616e7366657220746f20746865207a65726f2061646460008201527f7265737300000000000000000000000000000000000000000000000000000000602082015250565b6000612d0c60248361219f565b9150612d1782612cb0565b604082019050919050565b60006020820190508181036000830152612d3b81612cff565b9050919050565b7f4552433732313a20617070726f766520746f2063616c6c657200000000000000600082015250565b6000612d7860198361219f565b9150612d8382612d42565b602082019050919050565b60006020820190508181036000830152612da781612d6b565b9050919050565b7f4552433732313a207472616e7366657220746f206e6f6e20455243373231526560008201527f63656976657220696d706c656d656e7465720000000000000000000000000000602082015250565b6000612e0a60328361219f565b9150612e1582612dae565b604082019050919050565b60006020820190508181036000830152612e3981612dfd565b9050919050565b7f4e487b7100000000000000000000000000000000000000000000000000000000600052601260045260246000fd5b7f455243373231456e756d657261626c653a20636f6e736563757469766520747260008201527f616e7366657273206e6f7420737570706f727465640000000000000000000000602082015250565b6000612ecb60358361219f565b9150612ed682612e6f565b604082019050919050565b60006020820190508181036000830152612efa81612ebe565b9050919050565b600081519050919050565b600082825260208201905092915050565b6000612f2882612f01565b612f328185612f0c565b9350612f428185602086016121b0565b612f4b816121da565b840191505092915050565b6000608082019050612f6b60008301876122db565b612f7860208301866122db565b612f856040830185612371565b8181036060830152612f978184612f1d565b905095945050505050565b600081519050612fb181612105565b92915050565b600060208284031215612fcd57612fcc6120cf565b5b6000612fdb84828501612fa2565b91505092915050565b7f4e487b7100000000000000000000000000000000000000000000000000000000600052601160045260246000fd5b600061301e82612246565b915061302983612246565b925082820390508181111561304157613040612fe4565b5b92915050565b7f4e487b7100000000000000000000000000000000000000000000000000000000600052603160045260246000fd5b7f4552433732313a206d696e7420746f20746865207a65726f2061646472657373600082015250565b60006130ac60208361219f565b91506130b782613076565b602082019050919050565b600060208201905081810360008301526130db8161309f565b9050919050565b7f4552433732313a20746f6b656e20616c7265616479206d696e74656400000000600082015250565b6000613118601c8361219f565b9150613123826130e2565b602082019050919050565b600060208201905081810360008301526131478161310b565b905091905056fea26469706673582212205aaddf1cc7ac44b5d3f2184f2011677d31e1f3d459ffc9d49e016c99bc01b43564736f6c63430008120033",
  "linkReferences": {},
  "deployedLinkReferences": {}
}